{
  "contractName": "AltherA",
  "abi": [
    {
      "inputs": [],
      "stateMutability": "nonpayable",
      "type": "constructor"
    },
    {
      "anonymous": false,
      "inputs": [
        {
          "indexed": true,
          "internalType": "address",
          "name": "owner",
          "type": "address"
        },
        {
          "indexed": true,
          "internalType": "address",
          "name": "spender",
          "type": "address"
        },
        {
          "indexed": false,
          "internalType": "uint256",
          "name": "value",
          "type": "uint256"
        }
      ],
      "name": "Approval",
      "type": "event"
    },
    {
      "anonymous": false,
      "inputs": [
        {
          "indexed": true,
          "internalType": "address",
          "name": "from",
          "type": "address"
        },
        {
          "indexed": true,
          "internalType": "address",
          "name": "to",
          "type": "address"
        },
        {
          "indexed": false,
          "internalType": "uint256",
          "name": "value",
          "type": "uint256"
        }
      ],
      "name": "Burn",
      "type": "event"
    },
    {
      "anonymous": false,
      "inputs": [
        {
          "indexed": true,
          "internalType": "address",
          "name": "from",
          "type": "address"
        },
        {
          "indexed": true,
          "internalType": "address",
          "name": "to",
          "type": "address"
        },
        {
          "indexed": false,
          "internalType": "uint256",
          "name": "value",
          "type": "uint256"
        }
      ],
      "name": "DeflectIn",
      "type": "event"
    },
    {
      "anonymous": false,
      "inputs": [
        {
          "indexed": true,
          "internalType": "address",
          "name": "from",
          "type": "address"
        },
        {
          "indexed": true,
          "internalType": "address",
          "name": "to",
          "type": "address"
        },
        {
          "indexed": false,
          "internalType": "uint256",
          "name": "value",
          "type": "uint256"
        }
      ],
      "name": "DeflectOut",
      "type": "event"
    },
    {
      "anonymous": false,
      "inputs": [
        {
          "indexed": true,
          "internalType": "address",
          "name": "previousOwner",
          "type": "address"
        },
        {
          "indexed": true,
          "internalType": "address",
          "name": "newOwner",
          "type": "address"
        }
      ],
      "name": "OwnershipTransferred",
      "type": "event"
    },
    {
      "anonymous": false,
      "inputs": [
        {
          "indexed": true,
          "internalType": "address",
          "name": "from",
          "type": "address"
        },
        {
          "indexed": true,
          "internalType": "address",
          "name": "to",
          "type": "address"
        },
        {
          "indexed": false,
          "internalType": "uint256",
          "name": "value",
          "type": "uint256"
        }
      ],
      "name": "Transfer",
      "type": "event"
    },
    {
      "inputs": [],
      "name": "_burnFee",
      "outputs": [
        {
          "internalType": "uint256",
          "name": "",
          "type": "uint256"
        }
      ],
      "stateMutability": "view",
      "type": "function"
    },
    {
      "inputs": [],
      "name": "_deflectionFee",
      "outputs": [
        {
          "internalType": "uint256",
          "name": "",
          "type": "uint256"
        }
      ],
      "stateMutability": "view",
      "type": "function"
    },
    {
      "inputs": [],
      "name": "geUnlockTime",
      "outputs": [
        {
          "internalType": "uint256",
          "name": "",
          "type": "uint256"
        }
      ],
      "stateMutability": "view",
      "type": "function"
    },
    {
      "inputs": [
        {
          "internalType": "uint256",
          "name": "time",
          "type": "uint256"
        }
      ],
      "name": "lock",
      "outputs": [],
      "stateMutability": "nonpayable",
      "type": "function"
    },
    {
      "inputs": [],
      "name": "owner",
      "outputs": [
        {
          "internalType": "address",
          "name": "",
          "type": "address"
        }
      ],
      "stateMutability": "view",
      "type": "function"
    },
    {
      "inputs": [],
      "name": "renounceOwnership",
      "outputs": [],
      "stateMutability": "nonpayable",
      "type": "function"
    },
    {
      "inputs": [
        {
          "internalType": "address",
          "name": "newOwner",
          "type": "address"
        }
      ],
      "name": "transferOwnership",
      "outputs": [],
      "stateMutability": "nonpayable",
      "type": "function"
    },
    {
      "inputs": [],
      "name": "unlock",
      "outputs": [],
      "stateMutability": "nonpayable",
      "type": "function"
    },
    {
      "inputs": [],
      "name": "getOwner",
      "outputs": [
        {
          "internalType": "address",
          "name": "",
          "type": "address"
        }
      ],
      "stateMutability": "view",
      "type": "function"
    },
    {
      "inputs": [],
      "name": "decimals",
      "outputs": [
        {
          "internalType": "uint8",
          "name": "",
          "type": "uint8"
        }
      ],
      "stateMutability": "view",
      "type": "function"
    },
    {
      "inputs": [],
      "name": "symbol",
      "outputs": [
        {
          "internalType": "string",
          "name": "",
          "type": "string"
        }
      ],
      "stateMutability": "view",
      "type": "function"
    },
    {
      "inputs": [],
      "name": "name",
      "outputs": [
        {
          "internalType": "string",
          "name": "",
          "type": "string"
        }
      ],
      "stateMutability": "view",
      "type": "function"
    },
    {
      "inputs": [],
      "name": "totalSupply",
      "outputs": [
        {
          "internalType": "uint256",
          "name": "",
          "type": "uint256"
        }
      ],
      "stateMutability": "view",
      "type": "function"
    },
    {
      "inputs": [
        {
          "internalType": "address",
          "name": "account",
          "type": "address"
        }
      ],
      "name": "balanceOf",
      "outputs": [
        {
          "internalType": "uint256",
          "name": "",
          "type": "uint256"
        }
      ],
      "stateMutability": "view",
      "type": "function"
    },
    {
      "inputs": [
        {
          "internalType": "address",
          "name": "recipient",
          "type": "address"
        },
        {
          "internalType": "uint256",
          "name": "amount",
          "type": "uint256"
        }
      ],
      "name": "transfer",
      "outputs": [
        {
          "internalType": "bool",
          "name": "",
          "type": "bool"
        }
      ],
      "stateMutability": "nonpayable",
      "type": "function"
    },
    {
      "inputs": [
        {
          "internalType": "address",
          "name": "owner",
          "type": "address"
        },
        {
          "internalType": "address",
          "name": "spender",
          "type": "address"
        }
      ],
      "name": "allowance",
      "outputs": [
        {
          "internalType": "uint256",
          "name": "",
          "type": "uint256"
        }
      ],
      "stateMutability": "view",
      "type": "function"
    },
    {
      "inputs": [
        {
          "internalType": "address",
          "name": "spender",
          "type": "address"
        },
        {
          "internalType": "uint256",
          "name": "amount",
          "type": "uint256"
        }
      ],
      "name": "approve",
      "outputs": [
        {
          "internalType": "bool",
          "name": "",
          "type": "bool"
        }
      ],
      "stateMutability": "nonpayable",
      "type": "function"
    },
    {
      "inputs": [
        {
          "internalType": "address",
          "name": "sender",
          "type": "address"
        },
        {
          "internalType": "address",
          "name": "recipient",
          "type": "address"
        },
        {
          "internalType": "uint256",
          "name": "amount",
          "type": "uint256"
        }
      ],
      "name": "transferFrom",
      "outputs": [
        {
          "internalType": "bool",
          "name": "",
          "type": "bool"
        }
      ],
      "stateMutability": "nonpayable",
      "type": "function"
    },
    {
      "inputs": [
        {
          "internalType": "address",
          "name": "spender",
          "type": "address"
        },
        {
          "internalType": "uint256",
          "name": "addedValue",
          "type": "uint256"
        }
      ],
      "name": "increaseAllowance",
      "outputs": [
        {
          "internalType": "bool",
          "name": "",
          "type": "bool"
        }
      ],
      "stateMutability": "nonpayable",
      "type": "function"
    },
    {
      "inputs": [
        {
          "internalType": "address",
          "name": "spender",
          "type": "address"
        },
        {
          "internalType": "uint256",
          "name": "subtractedValue",
          "type": "uint256"
        }
      ],
      "name": "decreaseAllowance",
      "outputs": [
        {
          "internalType": "bool",
          "name": "",
          "type": "bool"
        }
      ],
      "stateMutability": "nonpayable",
      "type": "function"
    },
    {
      "inputs": [
        {
          "internalType": "uint256",
          "name": "newFee",
          "type": "uint256"
        }
      ],
      "name": "ChangeBurnFee",
      "outputs": [
        {
          "internalType": "bool",
          "name": "",
          "type": "bool"
        }
      ],
      "stateMutability": "nonpayable",
      "type": "function"
    },
    {
      "inputs": [
        {
          "internalType": "uint256",
          "name": "newFee",
          "type": "uint256"
        }
      ],
      "name": "ChangeDeflectFee",
      "outputs": [
        {
          "internalType": "bool",
          "name": "",
          "type": "bool"
        }
      ],
      "stateMutability": "nonpayable",
      "type": "function"
    }
  ],
  "bytecode": "0x608060405233600660006101000a81548173ffffffffffffffffffffffffffffffffffffffff021916908373ffffffffffffffffffffffffffffffffffffffff16021790555073277216c4c4dd57e76c4ea6e38a3e9bd4610a57d6600760006101000a81548173ffffffffffffffffffffffffffffffffffffffff021916908373ffffffffffffffffffffffffffffffffffffffff160217905550733db0ac34451f66637e2f4769f084a2e869d32fd2600860006101000a81548173ffffffffffffffffffffffffffffffffffffffff021916908373ffffffffffffffffffffffffffffffffffffffff1602179055507310144493821e3bb495d7c8bccc2510770038350f600960006101000a81548173ffffffffffffffffffffffffffffffffffffffff021916908373ffffffffffffffffffffffffffffffffffffffff160217905550737c7f35f7d409ecb54a21a097d4c88dc2695e8733600a60006101000a81548173ffffffffffffffffffffffffffffffffffffffff021916908373ffffffffffffffffffffffffffffffffffffffff16021790555060016012556012546013556001601455601454601555348015620001bc57600080fd5b506000620001cf620009db60201b60201c565b9050806000806101000a81548173ffffffffffffffffffffffffffffffffffffffff021916908373ffffffffffffffffffffffffffffffffffffffff1602179055508073ffffffffffffffffffffffffffffffffffffffff16600073ffffffffffffffffffffffffffffffffffffffff167f8be0079c531659141344cd1fd0a4f28419497f9722a3daafe3b4186f6b6457e060405160405180910390a3506040518060400160405280600781526020017f416c74686572410000000000000000000000000000000000000000000000000081525060119080519060200190620002ba929190620009e3565b506040518060400160405280600381526020017f484f4100000000000000000000000000000000000000000000000000000000008152506010908051906020019062000308929190620009e3565b506005600f60006101000a81548160ff021916908360ff1602179055506702c68af0bb140000600b819055506002600b5462000345919062000afb565b600c81905550650574fbde60006002600b5462000363919062000afb565b6200036f919062000b33565b600d819055506501d1a94a2000600e81905550600c5460036000600660009054906101000a900473ffffffffffffffffffffffffffffffffffffffff1673ffffffffffffffffffffffffffffffffffffffff1673ffffffffffffffffffffffffffffffffffffffff16815260200190815260200160002081905550600d5460036000600760009054906101000a900473ffffffffffffffffffffffffffffffffffffffff1673ffffffffffffffffffffffffffffffffffffffff1673ffffffffffffffffffffffffffffffffffffffff16815260200190815260200160002081905550600e5460036000600860009054906101000a900473ffffffffffffffffffffffffffffffffffffffff1673ffffffffffffffffffffffffffffffffffffffff1673ffffffffffffffffffffffffffffffffffffffff16815260200190815260200160002081905550600e5460036000600960009054906101000a900473ffffffffffffffffffffffffffffffffffffffff1673ffffffffffffffffffffffffffffffffffffffff1673ffffffffffffffffffffffffffffffffffffffff16815260200190815260200160002081905550600e5460036000600a60009054906101000a900473ffffffffffffffffffffffffffffffffffffffff1673ffffffffffffffffffffffffffffffffffffffff1673ffffffffffffffffffffffffffffffffffffffff168152602001908152602001600020819055506005600860009054906101000a900473ffffffffffffffffffffffffffffffffffffffff169080600181540180825580915050600190039060005260206000200160009091909190916101000a81548173ffffffffffffffffffffffffffffffffffffffff021916908373ffffffffffffffffffffffffffffffffffffffff1602179055506005600960009054906101000a900473ffffffffffffffffffffffffffffffffffffffff169080600181540180825580915050600190039060005260206000200160009091909190916101000a81548173ffffffffffffffffffffffffffffffffffffffff021916908373ffffffffffffffffffffffffffffffffffffffff1602179055506005600a60009054906101000a900473ffffffffffffffffffffffffffffffffffffffff169080600181540180825580915050600190039060005260206000200160009091909190916101000a81548173ffffffffffffffffffffffffffffffffffffffff021916908373ffffffffffffffffffffffffffffffffffffffff160217905550600660009054906101000a900473ffffffffffffffffffffffffffffffffffffffff1673ffffffffffffffffffffffffffffffffffffffff16600073ffffffffffffffffffffffffffffffffffffffff167fddf252ad1be2c89b69c2b068fc378daa952ba7f163c4a11628f55a4df523b3ef600c546040516200079d919062000b7f565b60405180910390a3600760009054906101000a900473ffffffffffffffffffffffffffffffffffffffff1673ffffffffffffffffffffffffffffffffffffffff16600073ffffffffffffffffffffffffffffffffffffffff167fddf252ad1be2c89b69c2b068fc378daa952ba7f163c4a11628f55a4df523b3ef600d5460405162000829919062000b7f565b60405180910390a3600860009054906101000a900473ffffffffffffffffffffffffffffffffffffffff1673ffffffffffffffffffffffffffffffffffffffff16600073ffffffffffffffffffffffffffffffffffffffff167fddf252ad1be2c89b69c2b068fc378daa952ba7f163c4a11628f55a4df523b3ef600e54604051620008b5919062000b7f565b60405180910390a3600960009054906101000a900473ffffffffffffffffffffffffffffffffffffffff1673ffffffffffffffffffffffffffffffffffffffff16600073ffffffffffffffffffffffffffffffffffffffff167fddf252ad1be2c89b69c2b068fc378daa952ba7f163c4a11628f55a4df523b3ef600e5460405162000941919062000b7f565b60405180910390a3600a60009054906101000a900473ffffffffffffffffffffffffffffffffffffffff1673ffffffffffffffffffffffffffffffffffffffff16600073ffffffffffffffffffffffffffffffffffffffff167fddf252ad1be2c89b69c2b068fc378daa952ba7f163c4a11628f55a4df523b3ef600e54604051620009cd919062000b7f565b60405180910390a362000c01565b600033905090565b828054620009f19062000bcb565b90600052602060002090601f01602090048101928262000a15576000855562000a61565b82601f1062000a3057805160ff191683800117855562000a61565b8280016001018555821562000a61579182015b8281111562000a6057825182559160200191906001019062000a43565b5b50905062000a70919062000a74565b5090565b5b8082111562000a8f57600081600090555060010162000a75565b5090565b6000819050919050565b7f4e487b7100000000000000000000000000000000000000000000000000000000600052601260045260246000fd5b7f4e487b7100000000000000000000000000000000000000000000000000000000600052601160045260246000fd5b600062000b088262000a93565b915062000b158362000a93565b92508262000b285762000b2762000a9d565b5b828204905092915050565b600062000b408262000a93565b915062000b4d8362000a93565b92508282101562000b635762000b6262000acc565b5b828203905092915050565b62000b798162000a93565b82525050565b600060208201905062000b96600083018462000b6e565b92915050565b7f4e487b7100000000000000000000000000000000000000000000000000000000600052602260045260246000fd5b6000600282049050600182168062000be457607f821691505b6020821081141562000bfb5762000bfa62000b9c565b5b50919050565b612ab88062000c116000396000f3fe608060405234801561001057600080fd5b50600436106101425760003560e01c80638da5cb5b116100b8578063b6c523241161007c578063b6c523241461037d578063c0b0fda21461039b578063dd467064146103b9578063dd62ed3e146103d5578063efe6d0af14610405578063f2fde38b1461043557610142565b80638da5cb5b146102d757806395d89b41146102f5578063a457c2d714610313578063a69df4b514610343578063a9059cbb1461034d57610142565b8063313ce5671161010a578063313ce5671461021357806339509351146102315780634e6a46ac1461026157806370a082311461027f578063715018a6146102af578063893d20e8146102b957610142565b806306fdde0314610147578063095ea7b31461016557806318160ddd1461019557806323b872dd146101b35780632815ddb4146101e3575b600080fd5b61014f610451565b60405161015c9190611f4a565b60405180910390f35b61017f600480360381019061017a9190612005565b6104e3565b60405161018c9190612060565b60405180910390f35b61019d610501565b6040516101aa919061208a565b60405180910390f35b6101cd60048036038101906101c891906120a5565b61050b565b6040516101da9190612060565b60405180910390f35b6101fd60048036038101906101f891906120f8565b6105e4565b60405161020a9190612060565b60405180910390f35b61021b610694565b6040516102289190612141565b60405180910390f35b61024b60048036038101906102469190612005565b6106ab565b6040516102589190612060565b60405180910390f35b61026961075e565b604051610276919061208a565b60405180910390f35b6102996004803603810190610294919061215c565b610764565b6040516102a6919061208a565b60405180910390f35b6102b76107ad565b005b6102c1610900565b6040516102ce9190612198565b60405180910390f35b6102df61090f565b6040516102ec9190612198565b60405180910390f35b6102fd610938565b60405161030a9190611f4a565b60405180910390f35b61032d60048036038101906103289190612005565b6109ca565b60405161033a9190612060565b60405180910390f35b61034b610a97565b005b61036760048036038101906103629190612005565b610c6b565b6040516103749190612060565b60405180910390f35b610385610c89565b604051610392919061208a565b60405180910390f35b6103a3610c93565b6040516103b0919061208a565b60405180910390f35b6103d360048036038101906103ce91906120f8565b610c99565b005b6103ef60048036038101906103ea91906121b3565b610e60565b6040516103fc919061208a565b60405180910390f35b61041f600480360381019061041a91906120f8565b610ee7565b60405161042c9190612060565b60405180910390f35b61044f600480360381019061044a919061215c565b610f97565b005b60606011805461046090612222565b80601f016020809104026020016040519081016040528092919081815260200182805461048c90612222565b80156104d95780601f106104ae576101008083540402835291602001916104d9565b820191906000526020600020905b8154815290600101906020018083116104bc57829003601f168201915b5050505050905090565b60006104f76104f0611159565b8484611161565b6001905092915050565b6000600b54905090565b600061051884848461132c565b6105d984610524611159565b6105d4856040518060600160405280602881526020016129ee60289139600460008b73ffffffffffffffffffffffffffffffffffffffff1673ffffffffffffffffffffffffffffffffffffffff168152602001908152602001600020600061058a611159565b73ffffffffffffffffffffffffffffffffffffffff1673ffffffffffffffffffffffffffffffffffffffff1681526020019081526020016000205461166c9092919063ffffffff16565b611161565b600190509392505050565b60006105ee611159565b73ffffffffffffffffffffffffffffffffffffffff1660008054906101000a900473ffffffffffffffffffffffffffffffffffffffff1673ffffffffffffffffffffffffffffffffffffffff161461067b576040517f08c379a0000000000000000000000000000000000000000000000000000000008152600401610672906122a0565b60405180910390fd5b6012546013819055508160128190555060019050919050565b6000600f60009054906101000a900460ff16905090565b60006107546106b8611159565b8461074f85600460006106c9611159565b73ffffffffffffffffffffffffffffffffffffffff1673ffffffffffffffffffffffffffffffffffffffff16815260200190815260200160002060008973ffffffffffffffffffffffffffffffffffffffff1673ffffffffffffffffffffffffffffffffffffffff168152602001908152602001600020546116d090919063ffffffff16565b611161565b6001905092915050565b60145481565b6000600360008373ffffffffffffffffffffffffffffffffffffffff1673ffffffffffffffffffffffffffffffffffffffff168152602001908152602001600020549050919050565b6107b5611159565b73ffffffffffffffffffffffffffffffffffffffff1660008054906101000a900473ffffffffffffffffffffffffffffffffffffffff1673ffffffffffffffffffffffffffffffffffffffff1614610842576040517f08c379a0000000000000000000000000000000000000000000000000000000008152600401610839906122a0565b60405180910390fd5b600073ffffffffffffffffffffffffffffffffffffffff1660008054906101000a900473ffffffffffffffffffffffffffffffffffffffff1673ffffffffffffffffffffffffffffffffffffffff167f8be0079c531659141344cd1fd0a4f28419497f9722a3daafe3b4186f6b6457e060405160405180910390a360008060006101000a81548173ffffffffffffffffffffffffffffffffffffffff021916908373ffffffffffffffffffffffffffffffffffffffff160217905550565b600061090a61090f565b905090565b60008060009054906101000a900473ffffffffffffffffffffffffffffffffffffffff16905090565b60606010805461094790612222565b80601f016020809104026020016040519081016040528092919081815260200182805461097390612222565b80156109c05780601f10610995576101008083540402835291602001916109c0565b820191906000526020600020905b8154815290600101906020018083116109a357829003601f168201915b5050505050905090565b6000610a8d6109d7611159565b84610a8885604051806060016040528060258152602001612a3c6025913960046000610a01611159565b73ffffffffffffffffffffffffffffffffffffffff1673ffffffffffffffffffffffffffffffffffffffff16815260200190815260200160002060008a73ffffffffffffffffffffffffffffffffffffffff1673ffffffffffffffffffffffffffffffffffffffff1681526020019081526020016000205461166c9092919063ffffffff16565b611161565b6001905092915050565b3373ffffffffffffffffffffffffffffffffffffffff16600160009054906101000a900473ffffffffffffffffffffffffffffffffffffffff1673ffffffffffffffffffffffffffffffffffffffff1614610b27576040517f08c379a0000000000000000000000000000000000000000000000000000000008152600401610b1e90612332565b60405180910390fd5b6002544211610b6b576040517f08c379a0000000000000000000000000000000000000000000000000000000008152600401610b629061239e565b60405180910390fd5b600160009054906101000a900473ffffffffffffffffffffffffffffffffffffffff1673ffffffffffffffffffffffffffffffffffffffff1660008054906101000a900473ffffffffffffffffffffffffffffffffffffffff1673ffffffffffffffffffffffffffffffffffffffff167f8be0079c531659141344cd1fd0a4f28419497f9722a3daafe3b4186f6b6457e060405160405180910390a3600160009054906101000a900473ffffffffffffffffffffffffffffffffffffffff166000806101000a81548173ffffffffffffffffffffffffffffffffffffffff021916908373ffffffffffffffffffffffffffffffffffffffff160217905550565b6000610c7f610c78611159565b848461132c565b6001905092915050565b6000600254905090565b60125481565b610ca1611159565b73ffffffffffffffffffffffffffffffffffffffff1660008054906101000a900473ffffffffffffffffffffffffffffffffffffffff1673ffffffffffffffffffffffffffffffffffffffff1614610d2e576040517f08c379a0000000000000000000000000000000000000000000000000000000008152600401610d25906122a0565b60405180910390fd5b60008054906101000a900473ffffffffffffffffffffffffffffffffffffffff16600160006101000a81548173ffffffffffffffffffffffffffffffffffffffff021916908373ffffffffffffffffffffffffffffffffffffffff16021790555060008060006101000a81548173ffffffffffffffffffffffffffffffffffffffff021916908373ffffffffffffffffffffffffffffffffffffffff1602179055508042610ddc91906123ed565b600281905550600073ffffffffffffffffffffffffffffffffffffffff1660008054906101000a900473ffffffffffffffffffffffffffffffffffffffff1673ffffffffffffffffffffffffffffffffffffffff167f8be0079c531659141344cd1fd0a4f28419497f9722a3daafe3b4186f6b6457e060405160405180910390a350565b6000600460008473ffffffffffffffffffffffffffffffffffffffff1673ffffffffffffffffffffffffffffffffffffffff16815260200190815260200160002060008373ffffffffffffffffffffffffffffffffffffffff1673ffffffffffffffffffffffffffffffffffffffff16815260200190815260200160002054905092915050565b6000610ef1611159565b73ffffffffffffffffffffffffffffffffffffffff1660008054906101000a900473ffffffffffffffffffffffffffffffffffffffff1673ffffffffffffffffffffffffffffffffffffffff1614610f7e576040517f08c379a0000000000000000000000000000000000000000000000000000000008152600401610f75906122a0565b60405180910390fd5b6014546015819055508160148190555060019050919050565b610f9f611159565b73ffffffffffffffffffffffffffffffffffffffff1660008054906101000a900473ffffffffffffffffffffffffffffffffffffffff1673ffffffffffffffffffffffffffffffffffffffff161461102c576040517f08c379a0000000000000000000000000000000000000000000000000000000008152600401611023906122a0565b60405180910390fd5b600073ffffffffffffffffffffffffffffffffffffffff168173ffffffffffffffffffffffffffffffffffffffff16141561109c576040517f08c379a0000000000000000000000000000000000000000000000000000000008152600401611093906124b5565b60405180910390fd5b8073ffffffffffffffffffffffffffffffffffffffff1660008054906101000a900473ffffffffffffffffffffffffffffffffffffffff1673ffffffffffffffffffffffffffffffffffffffff167f8be0079c531659141344cd1fd0a4f28419497f9722a3daafe3b4186f6b6457e060405160405180910390a3806000806101000a81548173ffffffffffffffffffffffffffffffffffffffff021916908373ffffffffffffffffffffffffffffffffffffffff16021790555050565b600033905090565b600073ffffffffffffffffffffffffffffffffffffffff168373ffffffffffffffffffffffffffffffffffffffff1614156111d1576040517f08c379a00000000000000000000000000000000000000000000000000000000081526004016111c890612547565b60405180910390fd5b600073ffffffffffffffffffffffffffffffffffffffff168273ffffffffffffffffffffffffffffffffffffffff161415611241576040517f08c379a0000000000000000000000000000000000000000000000000000000008152600401611238906125d9565b60405180910390fd5b80600460008573ffffffffffffffffffffffffffffffffffffffff1673ffffffffffffffffffffffffffffffffffffffff16815260200190815260200160002060008473ffffffffffffffffffffffffffffffffffffffff1673ffffffffffffffffffffffffffffffffffffffff168152602001908152602001600020819055508173ffffffffffffffffffffffffffffffffffffffff168373ffffffffffffffffffffffffffffffffffffffff167f8c5be1e5ebec7d5bd14f71427d1e84f3dd0314c0f7b2291e5b200ac8c7c3b9258360405161131f919061208a565b60405180910390a3505050565b600073ffffffffffffffffffffffffffffffffffffffff168373ffffffffffffffffffffffffffffffffffffffff16141561139c576040517f08c379a00000000000000000000000000000000000000000000000000000000081526004016113939061266b565b60405180910390fd5b600073ffffffffffffffffffffffffffffffffffffffff168273ffffffffffffffffffffffffffffffffffffffff16141561140c576040517f08c379a0000000000000000000000000000000000000000000000000000000008152600401611403906126fd565b60405180910390fd5b61147881604051806060016040528060268152602001612a1660269139600360008773ffffffffffffffffffffffffffffffffffffffff1673ffffffffffffffffffffffffffffffffffffffff1681526020019081526020016000205461166c9092919063ffffffff16565b600360008573ffffffffffffffffffffffffffffffffffffffff1673ffffffffffffffffffffffffffffffffffffffff1681526020019081526020016000208190555061150d81600360008573ffffffffffffffffffffffffffffffffffffffff1673ffffffffffffffffffffffffffffffffffffffff168152602001908152602001600020546116d090919063ffffffff16565b600360008473ffffffffffffffffffffffffffffffffffffffff1673ffffffffffffffffffffffffffffffffffffffff168152602001908152602001600020819055508173ffffffffffffffffffffffffffffffffffffffff168373ffffffffffffffffffffffffffffffffffffffff167fddf252ad1be2c89b69c2b068fc378daa952ba7f163c4a11628f55a4df523b3ef836040516115ad919061208a565b60405180910390a36115be8261172e565b6305f5e10060036000600760009054906101000a900473ffffffffffffffffffffffffffffffffffffffff1673ffffffffffffffffffffffffffffffffffffffff1673ffffffffffffffffffffffffffffffffffffffff16815260200190815260200160002054111561166757600061163682611900565b61163f83611931565b61164991906123ed565b905061165481611962565b61166561166083611900565b611b3e565b505b505050565b60008383111582906116b4576040517f08c379a00000000000000000000000000000000000000000000000000000000081526004016116ab9190611f4a565b60405180910390fd5b50600083856116c3919061271d565b9050809150509392505050565b60008082846116df91906123ed565b905083811015611724576040517f08c379a000000000000000000000000000000000000000000000000000000000815260040161171b9061279d565b60405180910390fd5b8091505092915050565b60008060058054905011156118fc5760005b6005805490508110156117db5760058181548110611761576117606127bd565b5b9060005260206000200160009054906101000a900473ffffffffffffffffffffffffffffffffffffffff1673ffffffffffffffffffffffffffffffffffffffff168373ffffffffffffffffffffffffffffffffffffffff1614156117c857600191506117db565b80806117d3906127ec565b915050611740565b50801580156118385750600760009054906101000a900473ffffffffffffffffffffffffffffffffffffffff1673ffffffffffffffffffffffffffffffffffffffff168273ffffffffffffffffffffffffffffffffffffffff1614155b80156118925750600660009054906101000a900473ffffffffffffffffffffffffffffffffffffffff1673ffffffffffffffffffffffffffffffffffffffff168273ffffffffffffffffffffffffffffffffffffffff1614155b156118fb576005829080600181540180825580915050600190039060005260206000200160009091909190916101000a81548173ffffffffffffffffffffffffffffffffffffffff021916908373ffffffffffffffffffffffffffffffffffffffff1602179055505b5b5050565b600061192a606461191c60145485611d3f90919063ffffffff16565b611dba90919063ffffffff16565b9050919050565b600061195b606461194d60125485611d3f90919063ffffffff16565b611dba90919063ffffffff16565b9050919050565b600081116119a5576040517f08c379a000000000000000000000000000000000000000000000000000000000815260040161199c90612881565b60405180910390fd5b611a3381604051806060016040528060228152602001612a616022913960036000600760009054906101000a900473ffffffffffffffffffffffffffffffffffffffff1673ffffffffffffffffffffffffffffffffffffffff1673ffffffffffffffffffffffffffffffffffffffff1681526020019081526020016000205461166c9092919063ffffffff16565b60036000600760009054906101000a900473ffffffffffffffffffffffffffffffffffffffff1673ffffffffffffffffffffffffffffffffffffffff1673ffffffffffffffffffffffffffffffffffffffff16815260200190815260200160002081905550611aad81600b54611e0490919063ffffffff16565b600b81905550600073ffffffffffffffffffffffffffffffffffffffff16600760009054906101000a900473ffffffffffffffffffffffffffffffffffffffff1673ffffffffffffffffffffffffffffffffffffffff167fbac40739b0d4ca32fa2d82fc91630465ba3eddd1598da6fca393b26fb63b945383604051611b33919061208a565b60405180910390a350565b60006005805490501115611d3c57600060058054905082611b5f91906128d0565b905060005b600580549050811015611d3957611c01826003600060058581548110611b8d57611b8c6127bd565b5b9060005260206000200160009054906101000a900473ffffffffffffffffffffffffffffffffffffffff1673ffffffffffffffffffffffffffffffffffffffff1673ffffffffffffffffffffffffffffffffffffffff168152602001908152602001600020546116d090919063ffffffff16565b6003600060058481548110611c1957611c186127bd565b5b9060005260206000200160009054906101000a900473ffffffffffffffffffffffffffffffffffffffff1673ffffffffffffffffffffffffffffffffffffffff1673ffffffffffffffffffffffffffffffffffffffff1681526020019081526020016000208190555060058181548110611c9657611c956127bd565b5b9060005260206000200160009054906101000a900473ffffffffffffffffffffffffffffffffffffffff1673ffffffffffffffffffffffffffffffffffffffff16600073ffffffffffffffffffffffffffffffffffffffff167f0f30bbca32e518c571c4c8ea4522a8a2cdc84af6966fda06ae36d4f17bf57dab84604051611d1e919061208a565b60405180910390a38080611d31906127ec565b915050611b64565b50505b50565b600080831415611d525760009050611db4565b60008284611d609190612901565b9050828482611d6f91906128d0565b14611daf576040517f08c379a0000000000000000000000000000000000000000000000000000000008152600401611da6906129cd565b60405180910390fd5b809150505b92915050565b6000611dfc83836040518060400160405280601a81526020017f536166654d6174683a206469766973696f6e206279207a65726f000000000000815250611e4e565b905092915050565b6000611e4683836040518060400160405280601e81526020017f536166654d6174683a207375627472616374696f6e206f766572666c6f77000081525061166c565b905092915050565b60008083118290611e95576040517f08c379a0000000000000000000000000000000000000000000000000000000008152600401611e8c9190611f4a565b60405180910390fd5b5060008385611ea491906128d0565b9050809150509392505050565b600081519050919050565b600082825260208201905092915050565b60005b83811015611eeb578082015181840152602081019050611ed0565b83811115611efa576000848401525b50505050565b6000601f19601f8301169050919050565b6000611f1c82611eb1565b611f268185611ebc565b9350611f36818560208601611ecd565b611f3f81611f00565b840191505092915050565b60006020820190508181036000830152611f648184611f11565b905092915050565b600080fd5b600073ffffffffffffffffffffffffffffffffffffffff82169050919050565b6000611f9c82611f71565b9050919050565b611fac81611f91565b8114611fb757600080fd5b50565b600081359050611fc981611fa3565b92915050565b6000819050919050565b611fe281611fcf565b8114611fed57600080fd5b50565b600081359050611fff81611fd9565b92915050565b6000806040838503121561201c5761201b611f6c565b5b600061202a85828601611fba565b925050602061203b85828601611ff0565b9150509250929050565b60008115159050919050565b61205a81612045565b82525050565b60006020820190506120756000830184612051565b92915050565b61208481611fcf565b82525050565b600060208201905061209f600083018461207b565b92915050565b6000806000606084860312156120be576120bd611f6c565b5b60006120cc86828701611fba565b93505060206120dd86828701611fba565b92505060406120ee86828701611ff0565b9150509250925092565b60006020828403121561210e5761210d611f6c565b5b600061211c84828501611ff0565b91505092915050565b600060ff82169050919050565b61213b81612125565b82525050565b60006020820190506121566000830184612132565b92915050565b60006020828403121561217257612171611f6c565b5b600061218084828501611fba565b91505092915050565b61219281611f91565b82525050565b60006020820190506121ad6000830184612189565b92915050565b600080604083850312156121ca576121c9611f6c565b5b60006121d885828601611fba565b92505060206121e985828601611fba565b9150509250929050565b7f4e487b7100000000000000000000000000000000000000000000000000000000600052602260045260246000fd5b6000600282049050600182168061223a57607f821691505b6020821081141561224e5761224d6121f3565b5b50919050565b7f4f776e61626c653a2063616c6c6572206973206e6f7420746865206f776e6572600082015250565b600061228a602083611ebc565b915061229582612254565b602082019050919050565b600060208201905081810360008301526122b98161227d565b9050919050565b7f596f7520646f6e27742068617665207065726d697373696f6e20746f20756e6c60008201527f6f636b0000000000000000000000000000000000000000000000000000000000602082015250565b600061231c602383611ebc565b9150612327826122c0565b604082019050919050565b6000602082019050818103600083015261234b8161230f565b9050919050565b7f436f6e7472616374206973206c6f636b656420756e74696c2037206461797300600082015250565b6000612388601f83611ebc565b915061239382612352565b602082019050919050565b600060208201905081810360008301526123b78161237b565b9050919050565b7f4e487b7100000000000000000000000000000000000000000000000000000000600052601160045260246000fd5b60006123f882611fcf565b915061240383611fcf565b9250827fffffffffffffffffffffffffffffffffffffffffffffffffffffffffffffffff03821115612438576124376123be565b5b828201905092915050565b7f4f776e61626c653a206e6577206f776e657220697320746865207a65726f206160008201527f6464726573730000000000000000000000000000000000000000000000000000602082015250565b600061249f602683611ebc565b91506124aa82612443565b604082019050919050565b600060208201905081810360008301526124ce81612492565b9050919050565b7f42455032303a20617070726f76652066726f6d20746865207a65726f2061646460008201527f7265737300000000000000000000000000000000000000000000000000000000602082015250565b6000612531602483611ebc565b915061253c826124d5565b604082019050919050565b6000602082019050818103600083015261256081612524565b9050919050565b7f42455032303a20617070726f766520746f20746865207a65726f20616464726560008201527f7373000000000000000000000000000000000000000000000000000000000000602082015250565b60006125c3602283611ebc565b91506125ce82612567565b604082019050919050565b600060208201905081810360008301526125f2816125b6565b9050919050565b7f42455032303a207472616e736665722066726f6d20746865207a65726f20616460008201527f6472657373000000000000000000000000000000000000000000000000000000602082015250565b6000612655602583611ebc565b9150612660826125f9565b604082019050919050565b6000602082019050818103600083015261268481612648565b9050919050565b7f42455032303a207472616e7366657220746f20746865207a65726f206164647260008201527f6573730000000000000000000000000000000000000000000000000000000000602082015250565b60006126e7602383611ebc565b91506126f28261268b565b604082019050919050565b60006020820190508181036000830152612716816126da565b9050919050565b600061272882611fcf565b915061273383611fcf565b925082821015612746576127456123be565b5b828203905092915050565b7f536166654d6174683a206164646974696f6e206f766572666c6f770000000000600082015250565b6000612787601b83611ebc565b915061279282612751565b602082019050919050565b600060208201905081810360008301526127b68161277a565b9050919050565b7f4e487b7100000000000000000000000000000000000000000000000000000000600052603260045260246000fd5b60006127f782611fcf565b91507fffffffffffffffffffffffffffffffffffffffffffffffffffffffffffffffff82141561282a576128296123be565b5b600182019050919050565b7f42455032303a206275726e20736f6d65207468696e6700000000000000000000600082015250565b600061286b601683611ebc565b915061287682612835565b602082019050919050565b6000602082019050818103600083015261289a8161285e565b9050919050565b7f4e487b7100000000000000000000000000000000000000000000000000000000600052601260045260246000fd5b60006128db82611fcf565b91506128e683611fcf565b9250826128f6576128f56128a1565b5b828204905092915050565b600061290c82611fcf565b915061291783611fcf565b9250817fffffffffffffffffffffffffffffffffffffffffffffffffffffffffffffffff04831182151516156129505761294f6123be565b5b828202905092915050565b7f536166654d6174683a206d756c7469706c69636174696f6e206f766572666c6f60008201527f7700000000000000000000000000000000000000000000000000000000000000602082015250565b60006129b7602183611ebc565b91506129c28261295b565b604082019050919050565b600060208201905081810360008301526129e6816129aa565b905091905056fe42455032303a207472616e7366657220616d6f756e74206578636565647320616c6c6f77616e636542455032303a207472616e7366657220616d6f756e7420657863656564732062616c616e636542455032303a2064656372656173656420616c6c6f77616e63652062656c6f77207a65726f42455032303a206275726e20616d6f756e7420657863656564732062616c616e6365a2646970667358221220fa822b130b4e5ab2e828eaa07b6838138094fa947fde62be04e7d68f5ad8b73464736f6c634300080a0033",
  "immutableReferences": {},
  "source": "// SPDX-License-Identifier:MIT\r\npragma solidity >=0.4.22 <0.9.0;\r\n\r\ninterface IBEP20 {\r\n\r\n  function totalSupply() external view returns (uint256);\r\n\r\n  /**\r\n   * @dev Returns the amount of tokens owned by `account`.\r\n   */\r\n  function balanceOf(address account) external view returns (uint256);\r\n\r\n  /**\r\n   * @dev Moves `amount` tokens from the caller's account to `recipient`.\r\n   *\r\n   * Returns a boolean value indicating whether the operation succeeded.\r\n   *\r\n   * Emits a {Transfer} event.\r\n   */\r\n  function transfer(address recipient, uint256 amount) external returns (bool);\r\n\r\n  /**\r\n   * @dev Returns the remaining number of tokens that `spender` will be\r\n   * allowed to spend on behalf of `owner` through {transferFrom}. This is\r\n   * zero by default.\r\n   *\r\n   * This value changes when {approve} or {transferFrom} are called.\r\n   */\r\n  function allowance(address owner, address spender) external view returns (uint256);\r\n\r\n  /**\r\n   * @dev Sets `amount` as the allowance of `spender` over the caller's tokens.\r\n   *\r\n   * Returns a boolean value indicating whether the operation succeeded.\r\n   *\r\n   * IMPORTANT: Beware that changing an allowance with this method brings the risk\r\n   * that someone may use both the old and the new allowance by unfortunate\r\n   * transaction ordering. One possible solution to mitigate this race\r\n   * condition is to first reduce the spender's allowance to 0 and set the\r\n   * desired value afterwards:\r\n   * https://github.com/ethereum/EIPs/issues/20#issuecomment-263524729\r\n   *\r\n   * Emits an {Approval} event.\r\n   */\r\n  function approve(address spender, uint256 amount) external returns (bool);\r\n\r\n  /**\r\n   * @dev Moves `amount` tokens from `sender` to `recipient` using the\r\n   * allowance mechanism. `amount` is then deducted from the caller's\r\n   * allowance.\r\n   *\r\n   * Returns a boolean value indicating whether the operation succeeded.\r\n   *\r\n   * Emits a {Transfer} event.\r\n   */\r\n  function transferFrom(address sender, address recipient, uint256 amount) external returns (bool);\r\n\r\n  /**\r\n   * @dev Emitted when `value` tokens are moved from one account (`from`) to\r\n   * another (`to`).\r\n   *\r\n   * Note that `value` may be zero.\r\n   */\r\n  event Transfer(address indexed from, address indexed to, uint256 value);\r\n\r\n  event Burn(address indexed from, address indexed to, uint256 value);\r\n\r\n  event DeflectIn(address indexed from, address indexed to, uint256 value);\r\n\r\n  event DeflectOut(address indexed from, address indexed to, uint256 value);\r\n\r\n  /**\r\n   * @dev Emitted when the allowance of a `spender` for an `owner` is set by\r\n   * a call to {approve}. `value` is the new allowance.\r\n   */\r\n  event Approval(address indexed owner, address indexed spender, uint256 value);\r\n}\r\n\r\n\r\nlibrary SafeMath {\r\n  /**\r\n   * @dev Returns the addition of two unsigned integers, reverting on\r\n   * overflow.\r\n   *\r\n   * Counterpart to Solidity's `+` operator.\r\n   *\r\n   * Requirements:\r\n   *\r\n   * - Addition cannot overflow.\r\n   */\r\n  function add(uint256 a, uint256 b) internal pure returns (uint256) {\r\n      uint256 c = a + b;\r\n      require(c >= a, \"SafeMath: addition overflow\");\r\n\r\n      return c;\r\n  }\r\n\r\n  /**\r\n   * @dev Returns the subtraction of two unsigned integers, reverting on\r\n   * overflow (when the result is negative).\r\n   *\r\n   * Counterpart to Solidity's `-` operator.\r\n   *\r\n   * Requirements:\r\n   *\r\n   * - Subtraction cannot overflow.\r\n   */\r\n  function sub(uint256 a, uint256 b) internal pure returns (uint256) {\r\n      return sub(a, b, \"SafeMath: subtraction overflow\");\r\n  }\r\n\r\n  /**\r\n   * @dev Returns the subtraction of two unsigned integers, reverting with custom message on\r\n   * overflow (when the result is negative).\r\n   *\r\n   * Counterpart to Solidity's `-` operator.\r\n   *\r\n   * Requirements:\r\n   *\r\n   * - Subtraction cannot overflow.\r\n   */\r\n  function sub(uint256 a, uint256 b, string memory errorMessage) internal pure returns (uint256) {\r\n      require(b <= a, errorMessage);\r\n      uint256 c = a - b;\r\n\r\n      return c;\r\n  }\r\n\r\n  /**\r\n   * @dev Returns the multiplication of two unsigned integers, reverting on\r\n   * overflow.\r\n   *\r\n   * Counterpart to Solidity's `*` operator.\r\n   *\r\n   * Requirements:\r\n   *\r\n   * - Multiplication cannot overflow.\r\n   */\r\n  function mul(uint256 a, uint256 b) internal pure returns (uint256) {\r\n      // Gas optimization: this is cheaper than requiring 'a' not being zero, but the\r\n      // benefit is lost if 'b' is also tested.\r\n      // See: https://github.com/OpenZeppelin/openzeppelin-contracts/pull/522\r\n      if (a == 0) {\r\n          return 0;\r\n      }\r\n\r\n      uint256 c = a * b;\r\n      require(c / a == b, \"SafeMath: multiplication overflow\");\r\n\r\n      return c;\r\n  }\r\n\r\n  /**\r\n   * @dev Returns the integer division of two unsigned integers. Reverts on\r\n   * division by zero. The result is rounded towards zero.\r\n   *\r\n   * Counterpart to Solidity's `/` operator. Note: this function uses a\r\n   * `revert` opcode (which leaves remaining gas untouched) while Solidity\r\n   * uses an invalid opcode to revert (consuming all remaining gas).\r\n   *\r\n   * Requirements:\r\n   *\r\n   * - The divisor cannot be zero.\r\n   */\r\n  function div(uint256 a, uint256 b) internal pure returns (uint256) {\r\n      return div(a, b, \"SafeMath: division by zero\");\r\n  }\r\n\r\n  /**\r\n   * @dev Returns the integer division of two unsigned integers. Reverts with custom message on\r\n   * division by zero. The result is rounded towards zero.\r\n   *\r\n   * Counterpart to Solidity's `/` operator. Note: this function uses a\r\n   * `revert` opcode (which leaves remaining gas untouched) while Solidity\r\n   * uses an invalid opcode to revert (consuming all remaining gas).\r\n   *\r\n   * Requirements:\r\n   *\r\n   * - The divisor cannot be zero.\r\n   */\r\n  function div(uint256 a, uint256 b, string memory errorMessage) internal pure returns (uint256) {\r\n      require(b > 0, errorMessage);\r\n      uint256 c = a / b;\r\n      // assert(a == b * c + a % b); // There is no case in which this doesn't hold\r\n\r\n      return c;\r\n  }\r\n\r\n  /**\r\n   * @dev Returns the remainder of dividing two unsigned integers. (unsigned integer modulo),\r\n   * Reverts when dividing by zero.\r\n   *\r\n   * Counterpart to Solidity's `%` operator. This function uses a `revert`\r\n   * opcode (which leaves remaining gas untouched) while Solidity uses an\r\n   * invalid opcode to revert (consuming all remaining gas).\r\n   *\r\n   * Requirements:\r\n   *\r\n   * - The divisor cannot be zero.\r\n   */\r\n  function mod(uint256 a, uint256 b) internal pure returns (uint256) {\r\n      return mod(a, b, \"SafeMath: modulo by zero\");\r\n  }\r\n\r\n  /**\r\n   * @dev Returns the remainder of dividing two unsigned integers. (unsigned integer modulo),\r\n   * Reverts with custom message when dividing by zero.\r\n   *\r\n   * Counterpart to Solidity's `%` operator. This function uses a `revert`\r\n   * opcode (which leaves remaining gas untouched) while Solidity uses an\r\n   * invalid opcode to revert (consuming all remaining gas).\r\n   *\r\n   * Requirements:\r\n   *\r\n   * - The divisor cannot be zero.\r\n   */\r\n  function mod(uint256 a, uint256 b, string memory errorMessage) internal pure returns (uint256) {\r\n      require(b != 0, errorMessage);\r\n      return a % b;\r\n  }\r\n}\r\n\r\nabstract contract Context {\r\n  function _msgSender() internal view virtual returns (address) {\r\n      return address(msg.sender);\r\n  }\r\n\r\n  function _msgData() internal view virtual returns (bytes memory) {\r\n      this; // silence state mutability warning without generating bytecode - see https://github.com/ethereum/solidity/issues/2691\r\n      return msg.data;\r\n  }\r\n}\r\n\r\n\r\n/**\r\n* @dev Collection of functions related to the address type\r\n*/\r\nlibrary Address {\r\n  /**\r\n   * @dev Returns true if `account` is a contract.\r\n   *\r\n   * [IMPORTANT]\r\n   * ====\r\n   * It is unsafe to assume that an address for which this function returns\r\n   * false is an externally-owned account (EOA) and not a contract.\r\n   *\r\n   * Among others, `isContract` will return false for the following\r\n   * types of addresses:\r\n   *\r\n   *  - an externally-owned account\r\n   *  - a contract in construction\r\n   *  - an address where a contract will be created\r\n   *  - an address where a contract lived, but was destroyed\r\n   * ====\r\n   */\r\n  function isContract(address account) internal view returns (bool) {\r\n      // According to EIP-1052, 0x0 is the value returned for not-yet created accounts\r\n      // and 0xc5d2460186f7233c927e7db2dcc703c0e500b653ca82273b7bfad8045d85a470 is returned\r\n      // for accounts without code, i.e. `keccak256('')`\r\n      bytes32 codehash;\r\n      bytes32 accountHash = 0xc5d2460186f7233c927e7db2dcc703c0e500b653ca82273b7bfad8045d85a470;\r\n      // solhint-disable-next-line no-inline-assembly\r\n      assembly { codehash := extcodehash(account) }\r\n      return (codehash != accountHash && codehash != 0x0);\r\n  }\r\n\r\n  /**\r\n   * @dev Replacement for Solidity's `transfer`: sends `amount` wei to\r\n   * `recipient`, forwarding all available gas and reverting on errors.\r\n   *\r\n   * https://eips.ethereum.org/EIPS/eip-1884[EIP1884] increases the gas cost\r\n   * of certain opcodes, possibly making contracts go over the 2300 gas limit\r\n   * imposed by `transfer`, making them unable to receive funds via\r\n   * `transfer`. {sendValue} removes this limitation.\r\n   *\r\n   * https://diligence.consensys.net/posts/2019/09/stop-using-soliditys-transfer-block.timestamp/[Learn more].\r\n   *\r\n   * IMPORTANT: because control is transferred to `recipient`, care must be\r\n   * taken to not create reentrancy vulnerabilities. Consider using\r\n   * {ReentrancyGuard} or the\r\n   * https://solidity.readthedocs.io/en/v0.5.11/security-considerations.html#use-the-checks-effects-interactions-pattern[checks-effects-interactions pattern].\r\n   */\r\n  function sendValue(address payable recipient, uint256 amount) internal {\r\n      require(address(this).balance >= amount, \"Address: insufficient balance\");\r\n\r\n      // solhint-disable-next-line avoid-low-level-calls, avoid-call-value\r\n      (bool success, ) = recipient.call{ value: amount }(\"\");\r\n      require(success, \"Address: unable to send value, recipient may have reverted\");\r\n  }\r\n\r\n  /**\r\n   * @dev Performs a Solidity function call using a low level `call`. A\r\n   * plain`call` is an unsafe replacement for a function call: use this\r\n   * function instead.\r\n   *\r\n   * If `target` reverts with a revert reason, it is bubbled up by this\r\n   * function (like regular Solidity function calls).\r\n   *\r\n   * Returns the raw returned data. To convert to the expected return value,\r\n   * use https://solidity.readthedocs.io/en/latest/units-and-global-variables.html?highlight=abi.decode#abi-encoding-and-decoding-functions[`abi.decode`].\r\n   *\r\n   * Requirements:\r\n   *\r\n   * - `target` must be a contract.\r\n   * - calling `target` with `data` must not revert.\r\n   *\r\n   * _Available since v3.1._\r\n   */\r\n  function functionCall(address target, bytes memory data) internal returns (bytes memory) {\r\n    return functionCall(target, data, \"Address: low-level call failed\");\r\n  }\r\n\r\n  /**\r\n   * @dev Same as {xref-Address-functionCall-address-bytes-}[`functionCall`], but with\r\n   * `errorMessage` as a fallback revert reason when `target` reverts.\r\n   *\r\n   * _Available since v3.1._\r\n   */\r\n  function functionCall(address target, bytes memory data, string memory errorMessage) internal returns (bytes memory) {\r\n      return _functionCallWithValue(target, data, 0, errorMessage);\r\n  }\r\n\r\n  /**\r\n   * @dev Same as {xref-Address-functionCall-address-bytes-}[`functionCall`],\r\n   * but also transferring `value` wei to `target`.\r\n   *\r\n   * Requirements:\r\n   *\r\n   * - the calling contract must have an ETH balance of at least `value`.\r\n   * - the called Solidity function must be `payable`.\r\n   *\r\n   * _Available since v3.1._\r\n   */\r\n  function functionCallWithValue(address target, bytes memory data, uint256 value) internal returns (bytes memory) {\r\n      return functionCallWithValue(target, data, value, \"Address: low-level call with value failed\");\r\n  }\r\n\r\n  /**\r\n   * @dev Same as {xref-Address-functionCallWithValue-address-bytes-uint256-}[`functionCallWithValue`], but\r\n   * with `errorMessage` as a fallback revert reason when `target` reverts.\r\n   *\r\n   * _Available since v3.1._\r\n   */\r\n  function functionCallWithValue(address target, bytes memory data, uint256 value, string memory errorMessage) internal returns (bytes memory) {\r\n      require(address(this).balance >= value, \"Address: insufficient balance for call\");\r\n      return _functionCallWithValue(target, data, value, errorMessage);\r\n  }\r\n\r\n  function _functionCallWithValue(address target, bytes memory data, uint256 weiValue, string memory errorMessage) private returns (bytes memory) {\r\n      require(isContract(target), \"Address: call to non-contract\");\r\n\r\n      // solhint-disable-next-line avoid-low-level-calls\r\n      (bool success, bytes memory returndata) = target.call{ value: weiValue }(data);\r\n      if (success) {\r\n          return returndata;\r\n      } else {\r\n          // Look for revert reason and bubble it up if present\r\n          if (returndata.length > 0) {\r\n              // The easiest way to bubble the revert reason is using memory via assembly\r\n\r\n              // solhint-disable-next-line no-inline-assembly\r\n              assembly {\r\n                  let returndata_size := mload(returndata)\r\n                  revert(add(32, returndata), returndata_size)\r\n              }\r\n          } else {\r\n              revert(errorMessage);\r\n          }\r\n      }\r\n  }\r\n}\r\n\r\n/**\r\n* @dev Contract module which provides a basic access control mechanism, where\r\n* there is an account (an owner) that can be granted exclusive access to\r\n* specific functions.\r\n*\r\n* By default, the owner account will be the one that deploys the contract. This\r\n* can later be changed with {transferOwnership}.\r\n*\r\n* This module is used through inheritance. It will make available the modifier\r\n* `onlyOwner`, which can be applied to your functions to restrict their use to\r\n* the owner.\r\n*/\r\ncontract Ownable is Context {\r\n  address private _owner;\r\n  address private _previousOwner;\r\n  uint256 private _lockTime;\r\n\r\n  event OwnershipTransferred(address indexed previousOwner, address indexed newOwner);\r\n\r\n  \r\n   //@dev Initializes the contract setting the deployer as the initial owner.\r\n   \r\n  constructor () {\r\n      address msgSender = _msgSender();\r\n      _owner = msgSender;\r\n      emit OwnershipTransferred(address(0), msgSender);\r\n  }\r\n\r\n  /**\r\n   * @dev Returns the address of the current owner.\r\n   */\r\n  function owner() public view returns (address) {\r\n      return _owner;\r\n  }\r\n\r\n  /**\r\n   * @dev Throws if called by any account other than the owner.\r\n   */\r\n  modifier onlyOwner() {\r\n      require(_owner == _msgSender(), \"Ownable: caller is not the owner\");\r\n      _;\r\n  }\r\n\r\n   /**\r\n   * @dev Leaves the contract without owner. It will not be possible to call\r\n   * `onlyOwner` functions anymore. Can only be called by the current owner.\r\n   *\r\n   * NOTE: Renouncing ownership will leave the contract without an owner,\r\n   * thereby removing any functionality that is only available to the owner.\r\n   */\r\n  function renounceOwnership() public virtual onlyOwner {\r\n      emit OwnershipTransferred(_owner, address(0));\r\n      _owner = address(0);\r\n  }\r\n\r\n  /**\r\n   * @dev Transfers ownership of the contract to a new account (`newOwner`).\r\n   * Can only be called by the current owner.\r\n   */\r\n  function transferOwnership(address newOwner) public virtual onlyOwner {\r\n      require(newOwner != address(0), \"Ownable: new owner is the zero address\");\r\n      emit OwnershipTransferred(_owner, newOwner);\r\n      _owner = newOwner;\r\n  }\r\n\r\n  function geUnlockTime() public view returns (uint256) {\r\n      return _lockTime;\r\n  }\r\n\r\n  //Locks the contract for owner for the amount of time provided\r\n  function lock(uint256 time) public virtual onlyOwner {\r\n      _previousOwner = _owner;\r\n      _owner = address(0);\r\n      _lockTime = block.timestamp + time;\r\n      emit OwnershipTransferred(_owner, address(0));\r\n  }\r\n  \r\n  //Unlocks the contract for owner when _lockTime is exceeds\r\n  function unlock() public virtual {\r\n      require(_previousOwner == msg.sender, \"You don't have permission to unlock\");\r\n      require(block.timestamp > _lockTime , \"Contract is locked until 7 days\");\r\n      emit OwnershipTransferred(_owner, _previousOwner);\r\n      _owner = _previousOwner;\r\n  }\r\n}\r\n\r\n\r\n// pragma solidity >=0.6.2;\r\n\r\ncontract AltherA is Context, IBEP20, Ownable {\r\n    \r\n    //Libraries to Use\r\n    using SafeMath for uint256;\r\n    using Address for address;\r\n \r\n    //Properties\r\n    mapping (address => uint256) private _balances;\r\n    mapping (address => mapping (address => uint256)) private _allowances;\r\n    address[] private _holders;\r\n\r\n    //Declaring owner, lock and inversors accounts\r\n    address private _comunityAccount = msg.sender;\r\n    address private _lockAccount = address(0x277216c4c4dD57e76C4EA6e38a3E9bd4610A57D6);\r\n    address private _inv1 = address(0x3DB0AC34451F66637e2f4769F084a2e869d32fd2);\r\n    address private _inv2 = address(0x10144493821E3Bb495d7C8BCCc2510770038350F);\r\n    address private _inv3 = address(0x7c7f35f7d409ecb54a21A097D4c88dc2695e8733);\r\n  \r\n    uint256 private _totalSupply;\r\n    uint256 private _comunitySupply;\r\n    uint256 private _altheraSupply;\r\n    uint256 private _inversorSupply;\r\n    uint8 private _decimals;\r\n    string private _symbol;\r\n    string private _name;\r\n\r\n    //Fees declaration\r\n    uint256 public _burnFee = 1;\r\n    uint256 private _previousBurnFee = _burnFee;\r\n\r\n    uint256 public _deflectionFee = 1;\r\n    uint256 private _previousDeflectionFee = _deflectionFee;\r\n  \r\n    constructor(){\r\n      _name = \"AltherA\";\r\n      _symbol = \"HOA\";\r\n      _decimals = 5;\r\n      _totalSupply = 2000000000000 * 10 ** 5;\r\n      _comunitySupply = _totalSupply / 2;\r\n      _altheraSupply = (_totalSupply / 2) - 60000000 * 10 **5;\r\n      _inversorSupply = 20000000 * 10 **5;\r\n\r\n      _balances[_comunityAccount] = _comunitySupply;\r\n      _balances[_lockAccount] = _altheraSupply;\r\n      _balances[_inv1] = _inversorSupply;\r\n      _balances[_inv2] = _inversorSupply;\r\n      _balances[_inv3] = _inversorSupply;\r\n\r\n      _holders.push(_inv1);\r\n      _holders.push(_inv2);\r\n      _holders.push(_inv3);\r\n\r\n  \r\n      emit Transfer(address(0), _comunityAccount, _comunitySupply);\r\n      emit Transfer(address(0), _lockAccount, _altheraSupply);\r\n      emit Transfer(address(0), _inv1, _inversorSupply);\r\n      emit Transfer(address(0), _inv2, _inversorSupply);\r\n      emit Transfer(address(0), _inv3, _inversorSupply);\r\n    }\r\n  \r\n    /**\r\n     * @dev Returns the bep token owner.\r\n     */\r\n    function getOwner() external view returns (address) {\r\n      return owner();\r\n    }\r\n  \r\n    /**\r\n     * @dev Returns the token decimals.\r\n     */\r\n    function decimals() external view returns (uint8) {\r\n      return _decimals;\r\n    }\r\n  \r\n    /**\r\n     * @dev Returns the token symbol.\r\n     */\r\n    function symbol() external view returns (string memory) {\r\n      return _symbol;\r\n    }\r\n  \r\n    /**\r\n    * @dev Returns the token name.\r\n    */\r\n    function name() external view returns (string memory) {\r\n      return _name;\r\n    }\r\n  \r\n    /**\r\n     * @dev See {BEP20-totalSupply}.\r\n     */\r\n    function totalSupply() external view returns (uint256) {\r\n      return _totalSupply;\r\n    }\r\n  \r\n    /**\r\n     * @dev See {BEP20-balanceOf}.\r\n     */\r\n    function balanceOf(address account) external view returns (uint256) {\r\n      return _balances[account];\r\n    }\r\n  \r\n    /**\r\n     * @dev See {BEP20-transfer}.\r\n     *\r\n     * Requirements:\r\n     *\r\n     * - `recipient` cannot be the zero address.\r\n     * - the caller must have a balance of at least `amount`.\r\n     */\r\n    function transfer(address recipient, uint256 amount) external returns (bool) {\r\n      _transfer(_msgSender(), recipient, amount);\r\n      return true;\r\n    }\r\n  \r\n    /**\r\n     * @dev See {BEP20-allowance}.\r\n     */\r\n    function allowance(address owner, address spender) external view returns (uint256) {\r\n      return _allowances[owner][spender];\r\n    }\r\n  \r\n    /**\r\n     * @dev See {BEP20-approve}.\r\n     *\r\n     * Requirements:\r\n     *\r\n     * - `spender` cannot be the zero address.\r\n     */\r\n    function approve(address spender, uint256 amount) external returns (bool) {\r\n      _approve(_msgSender(), spender, amount);\r\n      return true;\r\n    }\r\n  \r\n    /**\r\n     * @dev See {BEP20-transferFrom}.\r\n     *\r\n     * Emits an {Approval} event indicating the updated allowance. This is not\r\n     * required by the EIP. See the note at the beginning of {BEP20};\r\n     *\r\n     * Requirements:\r\n     * - `sender` and `recipient` cannot be the zero address.\r\n     * - `sender` must have a balance of at least `amount`.\r\n     * - the caller must have allowance for `sender`'s tokens of at least\r\n     * `amount`.\r\n     */\r\n    function transferFrom(address sender, address recipient, uint256 amount) external returns (bool) {\r\n      _transfer(sender, recipient, amount);\r\n      _approve(sender, _msgSender(), _allowances[sender][_msgSender()].sub(amount, \"BEP20: transfer amount exceeds allowance\"));\r\n      return true;\r\n    }\r\n  \r\n    /**\r\n     * @dev Atomically increases the allowance granted to `spender` by the caller.\r\n     *\r\n     * This is an alternative to {approve} that can be used as a mitigation for\r\n     * problems described in {BEP20-approve}.\r\n     *\r\n     * Emits an {Approval} event indicating the updated allowance.\r\n     *\r\n     * Requirements:\r\n     *\r\n     * - `spender` cannot be the zero address.\r\n     */\r\n    function increaseAllowance(address spender, uint256 addedValue) public returns (bool) {\r\n      _approve(_msgSender(), spender, _allowances[_msgSender()][spender].add(addedValue));\r\n      return true;\r\n    }\r\n  \r\n    /**\r\n     * @dev Atomically decreases the allowance granted to `spender` by the caller.\r\n     *\r\n     * This is an alternative to {approve} that can be used as a mitigation for\r\n     * problems described in {BEP20-approve}.\r\n     *\r\n     * Emits an {Approval} event indicating the updated allowance.\r\n     *\r\n     * Requirements:\r\n     *\r\n     * - `spender` cannot be the zero address.\r\n     * - `spender` must have allowance for the caller of at least\r\n     * `subtractedValue`.\r\n     */\r\n    function decreaseAllowance(address spender, uint256 subtractedValue) public returns (bool) {\r\n      _approve(_msgSender(), spender, _allowances[_msgSender()][spender].sub(subtractedValue, \"BEP20: decreased allowance below zero\"));\r\n      return true;\r\n    }\r\n\r\n    function removeBurnFee() private {\r\n      if(_burnFee == 0) return;\r\n      \r\n      _previousBurnFee = _burnFee;\r\n      \r\n      _burnFee = 0;\r\n    }\r\n\r\n    function restoreBurnFee() private {\r\n      _burnFee = _previousBurnFee;\r\n    }\r\n\r\n    function calculateBurnFee(uint256 _amount) private view returns (uint256) {\r\n      return _amount.mul(_burnFee).div(\r\n          10**2\r\n      );\r\n    }\r\n\r\n    /**\r\n     * @dev Chqnges `burn Fee` aplied to transactions\r\n     *\r\n     * Requirements\r\n     *\r\n     * - `msg.sender` must be the token owner\r\n     */\r\n    function ChangeBurnFee(uint256 newFee) public onlyOwner returns (bool) {\r\n       _previousBurnFee = _burnFee;\r\n       _burnFee = newFee;\r\n        return true;\r\n    }\r\n\r\n    function removeDeflectFee() private {\r\n      if(_deflectionFee == 0) return;\r\n      \r\n      _previousDeflectionFee = _deflectionFee;\r\n      \r\n      _deflectionFee = 0;\r\n    }\r\n  \r\n    function restoreDeflectFee() private {\r\n      _deflectionFee = _previousDeflectionFee;\r\n    }\r\n\r\n    function calculateDefelctFee(uint256 _amount) private view returns (uint256) {\r\n      return _amount.mul(_deflectionFee).div(\r\n          10**2\r\n      );\r\n    }\r\n\r\n    /**\r\n     * @dev Chqnges `Deflection Fee` aplied to transactions\r\n     *\r\n     * Requirements\r\n     *\r\n     * - `msg.sender` must be the token owner\r\n     */\r\n    function ChangeDeflectFee(uint256 newFee) public onlyOwner returns (bool) {\r\n      _previousDeflectionFee = _deflectionFee;\r\n      _deflectionFee = newFee;\r\n       return true;\r\n    }\r\n\r\n    /**\r\n     * @dev Moves tokens `amount` from `sender` to `recipient`.\r\n     *\r\n     * This is internal function is equivalent to {transfer}, and can be used to\r\n     * e.g. implement automatic token fees, slashing mechanisms, etc.\r\n     *\r\n     * Emits a {Transfer} event.\r\n     *\r\n     * Requirements:\r\n     *\r\n     * - `sender` cannot be the zero address.\r\n     * - `recipient` cannot be the zero address.\r\n     * - `sender` must have a balance of at least `amount`.\r\n     */\r\n    function _transfer(address sender, address recipient, uint256 amount) internal {\r\n      require(sender != address(0), \"BEP20: transfer from the zero address\");\r\n      require(recipient != address(0), \"BEP20: transfer to the zero address\");\r\n  \r\n      _balances[sender] = _balances[sender].sub(amount, \"BEP20: transfer amount exceeds balance\");\r\n      _balances[recipient] = _balances[recipient].add(amount);\r\n      \r\n      emit Transfer(sender, recipient, amount);\r\n      _enlistAccount(recipient);\r\n      if(_balances[_lockAccount] > 100000000){\r\n        uint256 _totalBurning = calculateBurnFee(amount) + calculateDefelctFee(amount);\r\n        _defburn(_totalBurning);\r\n        _deflex(calculateDefelctFee(amount));\r\n      }\r\n      \r\n    }\r\n\r\n    function _enlistAccount (address toEnlist) private{\r\n      bool isEnlisted = false;\r\n\r\n      if(_holders.length > 0){\r\n        for(uint256 icounter = 0; icounter < _holders.length; icounter++){\r\n          if(toEnlist == _holders[icounter]){\r\n           isEnlisted = true;\r\n           break;\r\n          }\r\n       }\r\n       if(! isEnlisted && toEnlist != _lockAccount && toEnlist != _comunityAccount)\r\n          _holders.push(toEnlist); \r\n      }\r\n      \r\n    }\r\n  \r\n  \r\n    /**\r\n     * @dev Destroys `amount` tokens from `account`, reducing the\r\n     * total supply.\r\n     *\r\n     * Emits a {Transfer} event with `to` set to the zero address.\r\n     *\r\n     * Requirements\r\n     *\r\n     * - `account` cannot be the zero address.\r\n     * - `account` must have at least `amount` tokens.\r\n     */\r\n    function _burn(address account, uint256 amount) internal {\r\n      require(account != address(0), \"BEP20: burn from the zero address\");\r\n  \r\n      _balances[account] = _balances[account].sub(amount, \"BEP20: burn amount exceeds balance\");\r\n      _totalSupply = _totalSupply.sub(amount);\r\n      emit Transfer(account, address(0), amount);\r\n    }\r\n  \r\n    /**\r\n     * @dev Sets `amount` as the allowance of `spender` over the `owner`s tokens.\r\n     *\r\n     * This is internal function is equivalent to `approve`, and can be used to\r\n     * e.g. set automatic allowances for certain subsystems, etc.\r\n     *\r\n     * Emits an {Approval} event.\r\n     *\r\n     * Requirements:\r\n     *\r\n     * - `owner` cannot be the zero address.\r\n     * - `spender` cannot be the zero address.\r\n     */\r\n    function _approve(address owner, address spender, uint256 amount) internal {\r\n      require(owner != address(0), \"BEP20: approve from the zero address\");\r\n      require(spender != address(0), \"BEP20: approve to the zero address\");\r\n  \r\n      _allowances[owner][spender] = amount;\r\n      emit Approval(owner, spender, amount);\r\n    }\r\n  \r\n    /**\r\n     * @dev Destroys `amount` tokens from `account`.`amount` is then deducted\r\n     * from the caller's allowance.\r\n     *\r\n     * See {_burn} and {_approve}.\r\n     */\r\n    function _burnFrom(address account, uint256 amount) internal {\r\n      _burn(account, amount);\r\n      _approve(account, _msgSender(), _allowances[account][_msgSender()].sub(amount, \"BEP20: burn amount exceeds allowance\"));\r\n    }\r\n\r\n    /**\r\n     * @dev Destroy tokens from the lockAccount width every transaction\r\n     */\r\n    function _defburn(uint256 amount) internal {\r\n      require(amount > 0, \"BEP20: burn some thing\");\r\n  \r\n      _balances[_lockAccount] = _balances[_lockAccount].sub(amount, \"BEP20: burn amount exceeds balance\");\r\n      _totalSupply = _totalSupply.sub(amount);\r\n      emit Burn(_lockAccount, address(0), amount);\r\n    }\r\n\r\n    /**\r\n     * Deflect tokens from the lockAccount width every transaction\r\n     * among token holders\r\n     */\r\n    function _deflex(uint256 amount) internal{\r\n      if(_holders.length > 0){\r\n        uint256 _deflectAmount = amount / _holders.length;\r\n        for(uint256 icounter = 0; icounter < _holders.length; icounter++){\r\n          _balances[_holders[icounter]] = _balances[_holders[icounter]].add(_deflectAmount);\r\n          emit DeflectOut(address(0), _holders[icounter], _deflectAmount);\r\n        }\r\n      }\r\n      \r\n    }\r\n}",
  "sourcePath": "D:\\Althera\\SmartContracts Area\\DefZorking\\Zorking\\contracts\\AltherA.sol",
  "compiler": {
    "name": "solc",
    "version": "0.8.10+commit.fc410830.Emscripten.clang"
  },
  "schemaVersion": "3.4.3",
  "updatedAt": "2021-12-09T14:00:11.724Z",
  "devdoc": {
    "kind": "dev",
    "methods": {
      "ChangeBurnFee(uint256)": {
        "details": "Chqnges `burn Fee` aplied to transactions Requirements - `msg.sender` must be the token owner"
      },
      "ChangeDeflectFee(uint256)": {
        "details": "Chqnges `Deflection Fee` aplied to transactions Requirements - `msg.sender` must be the token owner"
      },
      "allowance(address,address)": {
        "details": "See {BEP20-allowance}."
      },
      "approve(address,uint256)": {
        "details": "See {BEP20-approve}. Requirements: - `spender` cannot be the zero address."
      },
      "balanceOf(address)": {
        "details": "See {BEP20-balanceOf}."
      },
      "decimals()": {
        "details": "Returns the token decimals."
      },
      "decreaseAllowance(address,uint256)": {
        "details": "Atomically decreases the allowance granted to `spender` by the caller. This is an alternative to {approve} that can be used as a mitigation for problems described in {BEP20-approve}. Emits an {Approval} event indicating the updated allowance. Requirements: - `spender` cannot be the zero address. - `spender` must have allowance for the caller of at least `subtractedValue`."
      },
      "getOwner()": {
        "details": "Returns the bep token owner."
      },
      "increaseAllowance(address,uint256)": {
        "details": "Atomically increases the allowance granted to `spender` by the caller. This is an alternative to {approve} that can be used as a mitigation for problems described in {BEP20-approve}. Emits an {Approval} event indicating the updated allowance. Requirements: - `spender` cannot be the zero address."
      },
      "name()": {
        "details": "Returns the token name."
      },
      "owner()": {
        "details": "Returns the address of the current owner."
      },
      "renounceOwnership()": {
        "details": "Leaves the contract without owner. It will not be possible to call `onlyOwner` functions anymore. Can only be called by the current owner. NOTE: Renouncing ownership will leave the contract without an owner, thereby removing any functionality that is only available to the owner."
      },
      "symbol()": {
        "details": "Returns the token symbol."
      },
      "totalSupply()": {
        "details": "See {BEP20-totalSupply}."
      },
      "transfer(address,uint256)": {
        "details": "See {BEP20-transfer}. Requirements: - `recipient` cannot be the zero address. - the caller must have a balance of at least `amount`."
      },
      "transferFrom(address,address,uint256)": {
        "details": "See {BEP20-transferFrom}. Emits an {Approval} event indicating the updated allowance. This is not required by the EIP. See the note at the beginning of {BEP20}; Requirements: - `sender` and `recipient` cannot be the zero address. - `sender` must have a balance of at least `amount`. - the caller must have allowance for `sender`'s tokens of at least `amount`."
      },
      "transferOwnership(address)": {
        "details": "Transfers ownership of the contract to a new account (`newOwner`). Can only be called by the current owner."
      }
    },
    "version": 1
  },
  "userdoc": {
    "kind": "user",
    "methods": {},
    "version": 1
  }
}