{
  "contractName": "Ownable",
  "abi": [
    {
      "inputs": [],
      "stateMutability": "nonpayable",
      "type": "constructor"
    },
    {
      "anonymous": false,
      "inputs": [
        {
          "indexed": true,
          "internalType": "address",
          "name": "previousOwner",
          "type": "address"
        },
        {
          "indexed": true,
          "internalType": "address",
          "name": "newOwner",
          "type": "address"
        }
      ],
      "name": "OwnershipTransferred",
      "type": "event"
    },
    {
      "inputs": [],
      "name": "owner",
      "outputs": [
        {
          "internalType": "address",
          "name": "",
          "type": "address"
        }
      ],
      "stateMutability": "view",
      "type": "function"
    },
    {
      "inputs": [],
      "name": "renounceOwnership",
      "outputs": [],
      "stateMutability": "nonpayable",
      "type": "function"
    },
    {
      "inputs": [
        {
          "internalType": "address",
          "name": "newOwner",
          "type": "address"
        }
      ],
      "name": "transferOwnership",
      "outputs": [],
      "stateMutability": "nonpayable",
      "type": "function"
    },
    {
      "inputs": [],
      "name": "geUnlockTime",
      "outputs": [
        {
          "internalType": "uint256",
          "name": "",
          "type": "uint256"
        }
      ],
      "stateMutability": "view",
      "type": "function"
    },
    {
      "inputs": [
        {
          "internalType": "uint256",
          "name": "time",
          "type": "uint256"
        }
      ],
      "name": "lock",
      "outputs": [],
      "stateMutability": "nonpayable",
      "type": "function"
    },
    {
      "inputs": [],
      "name": "unlock",
      "outputs": [],
      "stateMutability": "nonpayable",
      "type": "function"
    }
  ],
  "bytecode": "0x608060405234801561001057600080fd5b5060006100216100c460201b60201c565b9050806000806101000a81548173ffffffffffffffffffffffffffffffffffffffff021916908373ffffffffffffffffffffffffffffffffffffffff1602179055508073ffffffffffffffffffffffffffffffffffffffff16600073ffffffffffffffffffffffffffffffffffffffff167f8be0079c531659141344cd1fd0a4f28419497f9722a3daafe3b4186f6b6457e060405160405180910390a3506100cc565b600033905090565b610be9806100db6000396000f3fe608060405234801561001057600080fd5b50600436106100625760003560e01c8063715018a6146100675780638da5cb5b14610071578063a69df4b51461008f578063b6c5232414610099578063dd467064146100b7578063f2fde38b146100d3575b600080fd5b61006f6100ef565b005b610079610242565b604051610086919061081b565b60405180910390f35b61009761026b565b005b6100a161043f565b6040516100ae919061084f565b60405180910390f35b6100d160048036038101906100cc919061089b565b610449565b005b6100ed60048036038101906100e891906108f4565b610610565b005b6100f76107d2565b73ffffffffffffffffffffffffffffffffffffffff1660008054906101000a900473ffffffffffffffffffffffffffffffffffffffff1673ffffffffffffffffffffffffffffffffffffffff1614610184576040517f08c379a000000000000000000000000000000000000000000000000000000000815260040161017b9061097e565b60405180910390fd5b600073ffffffffffffffffffffffffffffffffffffffff1660008054906101000a900473ffffffffffffffffffffffffffffffffffffffff1673ffffffffffffffffffffffffffffffffffffffff167f8be0079c531659141344cd1fd0a4f28419497f9722a3daafe3b4186f6b6457e060405160405180910390a360008060006101000a81548173ffffffffffffffffffffffffffffffffffffffff021916908373ffffffffffffffffffffffffffffffffffffffff160217905550565b60008060009054906101000a900473ffffffffffffffffffffffffffffffffffffffff16905090565b3373ffffffffffffffffffffffffffffffffffffffff16600160009054906101000a900473ffffffffffffffffffffffffffffffffffffffff1673ffffffffffffffffffffffffffffffffffffffff16146102fb576040517f08c379a00000000000000000000000000000000000000000000000000000000081526004016102f290610a10565b60405180910390fd5b600254421161033f576040517f08c379a000000000000000000000000000000000000000000000000000000000815260040161033690610a7c565b60405180910390fd5b600160009054906101000a900473ffffffffffffffffffffffffffffffffffffffff1673ffffffffffffffffffffffffffffffffffffffff1660008054906101000a900473ffffffffffffffffffffffffffffffffffffffff1673ffffffffffffffffffffffffffffffffffffffff167f8be0079c531659141344cd1fd0a4f28419497f9722a3daafe3b4186f6b6457e060405160405180910390a3600160009054906101000a900473ffffffffffffffffffffffffffffffffffffffff166000806101000a81548173ffffffffffffffffffffffffffffffffffffffff021916908373ffffffffffffffffffffffffffffffffffffffff160217905550565b6000600254905090565b6104516107d2565b73ffffffffffffffffffffffffffffffffffffffff1660008054906101000a900473ffffffffffffffffffffffffffffffffffffffff1673ffffffffffffffffffffffffffffffffffffffff16146104de576040517f08c379a00000000000000000000000000000000000000000000000000000000081526004016104d59061097e565b60405180910390fd5b60008054906101000a900473ffffffffffffffffffffffffffffffffffffffff16600160006101000a81548173ffffffffffffffffffffffffffffffffffffffff021916908373ffffffffffffffffffffffffffffffffffffffff16021790555060008060006101000a81548173ffffffffffffffffffffffffffffffffffffffff021916908373ffffffffffffffffffffffffffffffffffffffff160217905550804261058c9190610acb565b600281905550600073ffffffffffffffffffffffffffffffffffffffff1660008054906101000a900473ffffffffffffffffffffffffffffffffffffffff1673ffffffffffffffffffffffffffffffffffffffff167f8be0079c531659141344cd1fd0a4f28419497f9722a3daafe3b4186f6b6457e060405160405180910390a350565b6106186107d2565b73ffffffffffffffffffffffffffffffffffffffff1660008054906101000a900473ffffffffffffffffffffffffffffffffffffffff1673ffffffffffffffffffffffffffffffffffffffff16146106a5576040517f08c379a000000000000000000000000000000000000000000000000000000000815260040161069c9061097e565b60405180910390fd5b600073ffffffffffffffffffffffffffffffffffffffff168173ffffffffffffffffffffffffffffffffffffffff161415610715576040517f08c379a000000000000000000000000000000000000000000000000000000000815260040161070c90610b93565b60405180910390fd5b8073ffffffffffffffffffffffffffffffffffffffff1660008054906101000a900473ffffffffffffffffffffffffffffffffffffffff1673ffffffffffffffffffffffffffffffffffffffff167f8be0079c531659141344cd1fd0a4f28419497f9722a3daafe3b4186f6b6457e060405160405180910390a3806000806101000a81548173ffffffffffffffffffffffffffffffffffffffff021916908373ffffffffffffffffffffffffffffffffffffffff16021790555050565b600033905090565b600073ffffffffffffffffffffffffffffffffffffffff82169050919050565b6000610805826107da565b9050919050565b610815816107fa565b82525050565b6000602082019050610830600083018461080c565b92915050565b6000819050919050565b61084981610836565b82525050565b60006020820190506108646000830184610840565b92915050565b600080fd5b61087881610836565b811461088357600080fd5b50565b6000813590506108958161086f565b92915050565b6000602082840312156108b1576108b061086a565b5b60006108bf84828501610886565b91505092915050565b6108d1816107fa565b81146108dc57600080fd5b50565b6000813590506108ee816108c8565b92915050565b60006020828403121561090a5761090961086a565b5b6000610918848285016108df565b91505092915050565b600082825260208201905092915050565b7f4f776e61626c653a2063616c6c6572206973206e6f7420746865206f776e6572600082015250565b6000610968602083610921565b915061097382610932565b602082019050919050565b600060208201905081810360008301526109978161095b565b9050919050565b7f596f7520646f6e27742068617665207065726d697373696f6e20746f20756e6c60008201527f6f636b0000000000000000000000000000000000000000000000000000000000602082015250565b60006109fa602383610921565b9150610a058261099e565b604082019050919050565b60006020820190508181036000830152610a29816109ed565b9050919050565b7f436f6e7472616374206973206c6f636b656420756e74696c2037206461797300600082015250565b6000610a66601f83610921565b9150610a7182610a30565b602082019050919050565b60006020820190508181036000830152610a9581610a59565b9050919050565b7f4e487b7100000000000000000000000000000000000000000000000000000000600052601160045260246000fd5b6000610ad682610836565b9150610ae183610836565b9250827fffffffffffffffffffffffffffffffffffffffffffffffffffffffffffffffff03821115610b1657610b15610a9c565b5b828201905092915050565b7f4f776e61626c653a206e6577206f776e657220697320746865207a65726f206160008201527f6464726573730000000000000000000000000000000000000000000000000000602082015250565b6000610b7d602683610921565b9150610b8882610b21565b604082019050919050565b60006020820190508181036000830152610bac81610b70565b905091905056fea2646970667358221220f482826d2f4c1bff96ac3aaa442584f3bfecb6e684ba7cfeab7b8a171f323cd364736f6c634300080a0033",
  "immutableReferences": {},
  "source": "// SPDX-License-Identifier:MIT\r\npragma solidity >=0.4.22 <0.9.0;\r\n\r\ninterface IBEP20 {\r\n\r\n  function totalSupply() external view returns (uint256);\r\n\r\n  /**\r\n   * @dev Returns the amount of tokens owned by `account`.\r\n   */\r\n  function balanceOf(address account) external view returns (uint256);\r\n\r\n  /**\r\n   * @dev Moves `amount` tokens from the caller's account to `recipient`.\r\n   *\r\n   * Returns a boolean value indicating whether the operation succeeded.\r\n   *\r\n   * Emits a {Transfer} event.\r\n   */\r\n  function transfer(address recipient, uint256 amount) external returns (bool);\r\n\r\n  /**\r\n   * @dev Returns the remaining number of tokens that `spender` will be\r\n   * allowed to spend on behalf of `owner` through {transferFrom}. This is\r\n   * zero by default.\r\n   *\r\n   * This value changes when {approve} or {transferFrom} are called.\r\n   */\r\n  function allowance(address owner, address spender) external view returns (uint256);\r\n\r\n  /**\r\n   * @dev Sets `amount` as the allowance of `spender` over the caller's tokens.\r\n   *\r\n   * Returns a boolean value indicating whether the operation succeeded.\r\n   *\r\n   * IMPORTANT: Beware that changing an allowance with this method brings the risk\r\n   * that someone may use both the old and the new allowance by unfortunate\r\n   * transaction ordering. One possible solution to mitigate this race\r\n   * condition is to first reduce the spender's allowance to 0 and set the\r\n   * desired value afterwards:\r\n   * https://github.com/ethereum/EIPs/issues/20#issuecomment-263524729\r\n   *\r\n   * Emits an {Approval} event.\r\n   */\r\n  function approve(address spender, uint256 amount) external returns (bool);\r\n\r\n  /**\r\n   * @dev Moves `amount` tokens from `sender` to `recipient` using the\r\n   * allowance mechanism. `amount` is then deducted from the caller's\r\n   * allowance.\r\n   *\r\n   * Returns a boolean value indicating whether the operation succeeded.\r\n   *\r\n   * Emits a {Transfer} event.\r\n   */\r\n  function transferFrom(address sender, address recipient, uint256 amount) external returns (bool);\r\n\r\n  /**\r\n   * @dev Emitted when `value` tokens are moved from one account (`from`) to\r\n   * another (`to`).\r\n   *\r\n   * Note that `value` may be zero.\r\n   */\r\n  event Transfer(address indexed from, address indexed to, uint256 value);\r\n\r\n  event Burn(address indexed from, address indexed to, uint256 value);\r\n\r\n  event DeflectIn(address indexed from, address indexed to, uint256 value);\r\n\r\n  event DeflectOut(address indexed from, address indexed to, uint256 value);\r\n\r\n  /**\r\n   * @dev Emitted when the allowance of a `spender` for an `owner` is set by\r\n   * a call to {approve}. `value` is the new allowance.\r\n   */\r\n  event Approval(address indexed owner, address indexed spender, uint256 value);\r\n}\r\n\r\n\r\nlibrary SafeMath {\r\n  /**\r\n   * @dev Returns the addition of two unsigned integers, reverting on\r\n   * overflow.\r\n   *\r\n   * Counterpart to Solidity's `+` operator.\r\n   *\r\n   * Requirements:\r\n   *\r\n   * - Addition cannot overflow.\r\n   */\r\n  function add(uint256 a, uint256 b) internal pure returns (uint256) {\r\n      uint256 c = a + b;\r\n      require(c >= a, \"SafeMath: addition overflow\");\r\n\r\n      return c;\r\n  }\r\n\r\n  /**\r\n   * @dev Returns the subtraction of two unsigned integers, reverting on\r\n   * overflow (when the result is negative).\r\n   *\r\n   * Counterpart to Solidity's `-` operator.\r\n   *\r\n   * Requirements:\r\n   *\r\n   * - Subtraction cannot overflow.\r\n   */\r\n  function sub(uint256 a, uint256 b) internal pure returns (uint256) {\r\n      return sub(a, b, \"SafeMath: subtraction overflow\");\r\n  }\r\n\r\n  /**\r\n   * @dev Returns the subtraction of two unsigned integers, reverting with custom message on\r\n   * overflow (when the result is negative).\r\n   *\r\n   * Counterpart to Solidity's `-` operator.\r\n   *\r\n   * Requirements:\r\n   *\r\n   * - Subtraction cannot overflow.\r\n   */\r\n  function sub(uint256 a, uint256 b, string memory errorMessage) internal pure returns (uint256) {\r\n      require(b <= a, errorMessage);\r\n      uint256 c = a - b;\r\n\r\n      return c;\r\n  }\r\n\r\n  /**\r\n   * @dev Returns the multiplication of two unsigned integers, reverting on\r\n   * overflow.\r\n   *\r\n   * Counterpart to Solidity's `*` operator.\r\n   *\r\n   * Requirements:\r\n   *\r\n   * - Multiplication cannot overflow.\r\n   */\r\n  function mul(uint256 a, uint256 b) internal pure returns (uint256) {\r\n      // Gas optimization: this is cheaper than requiring 'a' not being zero, but the\r\n      // benefit is lost if 'b' is also tested.\r\n      // See: https://github.com/OpenZeppelin/openzeppelin-contracts/pull/522\r\n      if (a == 0) {\r\n          return 0;\r\n      }\r\n\r\n      uint256 c = a * b;\r\n      require(c / a == b, \"SafeMath: multiplication overflow\");\r\n\r\n      return c;\r\n  }\r\n\r\n  /**\r\n   * @dev Returns the integer division of two unsigned integers. Reverts on\r\n   * division by zero. The result is rounded towards zero.\r\n   *\r\n   * Counterpart to Solidity's `/` operator. Note: this function uses a\r\n   * `revert` opcode (which leaves remaining gas untouched) while Solidity\r\n   * uses an invalid opcode to revert (consuming all remaining gas).\r\n   *\r\n   * Requirements:\r\n   *\r\n   * - The divisor cannot be zero.\r\n   */\r\n  function div(uint256 a, uint256 b) internal pure returns (uint256) {\r\n      return div(a, b, \"SafeMath: division by zero\");\r\n  }\r\n\r\n  /**\r\n   * @dev Returns the integer division of two unsigned integers. Reverts with custom message on\r\n   * division by zero. The result is rounded towards zero.\r\n   *\r\n   * Counterpart to Solidity's `/` operator. Note: this function uses a\r\n   * `revert` opcode (which leaves remaining gas untouched) while Solidity\r\n   * uses an invalid opcode to revert (consuming all remaining gas).\r\n   *\r\n   * Requirements:\r\n   *\r\n   * - The divisor cannot be zero.\r\n   */\r\n  function div(uint256 a, uint256 b, string memory errorMessage) internal pure returns (uint256) {\r\n      require(b > 0, errorMessage);\r\n      uint256 c = a / b;\r\n      // assert(a == b * c + a % b); // There is no case in which this doesn't hold\r\n\r\n      return c;\r\n  }\r\n\r\n  /**\r\n   * @dev Returns the remainder of dividing two unsigned integers. (unsigned integer modulo),\r\n   * Reverts when dividing by zero.\r\n   *\r\n   * Counterpart to Solidity's `%` operator. This function uses a `revert`\r\n   * opcode (which leaves remaining gas untouched) while Solidity uses an\r\n   * invalid opcode to revert (consuming all remaining gas).\r\n   *\r\n   * Requirements:\r\n   *\r\n   * - The divisor cannot be zero.\r\n   */\r\n  function mod(uint256 a, uint256 b) internal pure returns (uint256) {\r\n      return mod(a, b, \"SafeMath: modulo by zero\");\r\n  }\r\n\r\n  /**\r\n   * @dev Returns the remainder of dividing two unsigned integers. (unsigned integer modulo),\r\n   * Reverts with custom message when dividing by zero.\r\n   *\r\n   * Counterpart to Solidity's `%` operator. This function uses a `revert`\r\n   * opcode (which leaves remaining gas untouched) while Solidity uses an\r\n   * invalid opcode to revert (consuming all remaining gas).\r\n   *\r\n   * Requirements:\r\n   *\r\n   * - The divisor cannot be zero.\r\n   */\r\n  function mod(uint256 a, uint256 b, string memory errorMessage) internal pure returns (uint256) {\r\n      require(b != 0, errorMessage);\r\n      return a % b;\r\n  }\r\n}\r\n\r\nabstract contract Context {\r\n  function _msgSender() internal view virtual returns (address) {\r\n      return address(msg.sender);\r\n  }\r\n\r\n  function _msgData() internal view virtual returns (bytes memory) {\r\n      this; // silence state mutability warning without generating bytecode - see https://github.com/ethereum/solidity/issues/2691\r\n      return msg.data;\r\n  }\r\n}\r\n\r\n\r\n/**\r\n* @dev Collection of functions related to the address type\r\n*/\r\nlibrary Address {\r\n  /**\r\n   * @dev Returns true if `account` is a contract.\r\n   *\r\n   * [IMPORTANT]\r\n   * ====\r\n   * It is unsafe to assume that an address for which this function returns\r\n   * false is an externally-owned account (EOA) and not a contract.\r\n   *\r\n   * Among others, `isContract` will return false for the following\r\n   * types of addresses:\r\n   *\r\n   *  - an externally-owned account\r\n   *  - a contract in construction\r\n   *  - an address where a contract will be created\r\n   *  - an address where a contract lived, but was destroyed\r\n   * ====\r\n   */\r\n  function isContract(address account) internal view returns (bool) {\r\n      // According to EIP-1052, 0x0 is the value returned for not-yet created accounts\r\n      // and 0xc5d2460186f7233c927e7db2dcc703c0e500b653ca82273b7bfad8045d85a470 is returned\r\n      // for accounts without code, i.e. `keccak256('')`\r\n      bytes32 codehash;\r\n      bytes32 accountHash = 0xc5d2460186f7233c927e7db2dcc703c0e500b653ca82273b7bfad8045d85a470;\r\n      // solhint-disable-next-line no-inline-assembly\r\n      assembly { codehash := extcodehash(account) }\r\n      return (codehash != accountHash && codehash != 0x0);\r\n  }\r\n\r\n  /**\r\n   * @dev Replacement for Solidity's `transfer`: sends `amount` wei to\r\n   * `recipient`, forwarding all available gas and reverting on errors.\r\n   *\r\n   * https://eips.ethereum.org/EIPS/eip-1884[EIP1884] increases the gas cost\r\n   * of certain opcodes, possibly making contracts go over the 2300 gas limit\r\n   * imposed by `transfer`, making them unable to receive funds via\r\n   * `transfer`. {sendValue} removes this limitation.\r\n   *\r\n   * https://diligence.consensys.net/posts/2019/09/stop-using-soliditys-transfer-block.timestamp/[Learn more].\r\n   *\r\n   * IMPORTANT: because control is transferred to `recipient`, care must be\r\n   * taken to not create reentrancy vulnerabilities. Consider using\r\n   * {ReentrancyGuard} or the\r\n   * https://solidity.readthedocs.io/en/v0.5.11/security-considerations.html#use-the-checks-effects-interactions-pattern[checks-effects-interactions pattern].\r\n   */\r\n  function sendValue(address payable recipient, uint256 amount) internal {\r\n      require(address(this).balance >= amount, \"Address: insufficient balance\");\r\n\r\n      // solhint-disable-next-line avoid-low-level-calls, avoid-call-value\r\n      (bool success, ) = recipient.call{ value: amount }(\"\");\r\n      require(success, \"Address: unable to send value, recipient may have reverted\");\r\n  }\r\n\r\n  /**\r\n   * @dev Performs a Solidity function call using a low level `call`. A\r\n   * plain`call` is an unsafe replacement for a function call: use this\r\n   * function instead.\r\n   *\r\n   * If `target` reverts with a revert reason, it is bubbled up by this\r\n   * function (like regular Solidity function calls).\r\n   *\r\n   * Returns the raw returned data. To convert to the expected return value,\r\n   * use https://solidity.readthedocs.io/en/latest/units-and-global-variables.html?highlight=abi.decode#abi-encoding-and-decoding-functions[`abi.decode`].\r\n   *\r\n   * Requirements:\r\n   *\r\n   * - `target` must be a contract.\r\n   * - calling `target` with `data` must not revert.\r\n   *\r\n   * _Available since v3.1._\r\n   */\r\n  function functionCall(address target, bytes memory data) internal returns (bytes memory) {\r\n    return functionCall(target, data, \"Address: low-level call failed\");\r\n  }\r\n\r\n  /**\r\n   * @dev Same as {xref-Address-functionCall-address-bytes-}[`functionCall`], but with\r\n   * `errorMessage` as a fallback revert reason when `target` reverts.\r\n   *\r\n   * _Available since v3.1._\r\n   */\r\n  function functionCall(address target, bytes memory data, string memory errorMessage) internal returns (bytes memory) {\r\n      return _functionCallWithValue(target, data, 0, errorMessage);\r\n  }\r\n\r\n  /**\r\n   * @dev Same as {xref-Address-functionCall-address-bytes-}[`functionCall`],\r\n   * but also transferring `value` wei to `target`.\r\n   *\r\n   * Requirements:\r\n   *\r\n   * - the calling contract must have an ETH balance of at least `value`.\r\n   * - the called Solidity function must be `payable`.\r\n   *\r\n   * _Available since v3.1._\r\n   */\r\n  function functionCallWithValue(address target, bytes memory data, uint256 value) internal returns (bytes memory) {\r\n      return functionCallWithValue(target, data, value, \"Address: low-level call with value failed\");\r\n  }\r\n\r\n  /**\r\n   * @dev Same as {xref-Address-functionCallWithValue-address-bytes-uint256-}[`functionCallWithValue`], but\r\n   * with `errorMessage` as a fallback revert reason when `target` reverts.\r\n   *\r\n   * _Available since v3.1._\r\n   */\r\n  function functionCallWithValue(address target, bytes memory data, uint256 value, string memory errorMessage) internal returns (bytes memory) {\r\n      require(address(this).balance >= value, \"Address: insufficient balance for call\");\r\n      return _functionCallWithValue(target, data, value, errorMessage);\r\n  }\r\n\r\n  function _functionCallWithValue(address target, bytes memory data, uint256 weiValue, string memory errorMessage) private returns (bytes memory) {\r\n      require(isContract(target), \"Address: call to non-contract\");\r\n\r\n      // solhint-disable-next-line avoid-low-level-calls\r\n      (bool success, bytes memory returndata) = target.call{ value: weiValue }(data);\r\n      if (success) {\r\n          return returndata;\r\n      } else {\r\n          // Look for revert reason and bubble it up if present\r\n          if (returndata.length > 0) {\r\n              // The easiest way to bubble the revert reason is using memory via assembly\r\n\r\n              // solhint-disable-next-line no-inline-assembly\r\n              assembly {\r\n                  let returndata_size := mload(returndata)\r\n                  revert(add(32, returndata), returndata_size)\r\n              }\r\n          } else {\r\n              revert(errorMessage);\r\n          }\r\n      }\r\n  }\r\n}\r\n\r\n/**\r\n* @dev Contract module which provides a basic access control mechanism, where\r\n* there is an account (an owner) that can be granted exclusive access to\r\n* specific functions.\r\n*\r\n* By default, the owner account will be the one that deploys the contract. This\r\n* can later be changed with {transferOwnership}.\r\n*\r\n* This module is used through inheritance. It will make available the modifier\r\n* `onlyOwner`, which can be applied to your functions to restrict their use to\r\n* the owner.\r\n*/\r\ncontract Ownable is Context {\r\n  address private _owner;\r\n  address private _previousOwner;\r\n  uint256 private _lockTime;\r\n\r\n  event OwnershipTransferred(address indexed previousOwner, address indexed newOwner);\r\n\r\n  \r\n   //@dev Initializes the contract setting the deployer as the initial owner.\r\n   \r\n  constructor () {\r\n      address msgSender = _msgSender();\r\n      _owner = msgSender;\r\n      emit OwnershipTransferred(address(0), msgSender);\r\n  }\r\n\r\n  /**\r\n   * @dev Returns the address of the current owner.\r\n   */\r\n  function owner() public view returns (address) {\r\n      return _owner;\r\n  }\r\n\r\n  /**\r\n   * @dev Throws if called by any account other than the owner.\r\n   */\r\n  modifier onlyOwner() {\r\n      require(_owner == _msgSender(), \"Ownable: caller is not the owner\");\r\n      _;\r\n  }\r\n\r\n   /**\r\n   * @dev Leaves the contract without owner. It will not be possible to call\r\n   * `onlyOwner` functions anymore. Can only be called by the current owner.\r\n   *\r\n   * NOTE: Renouncing ownership will leave the contract without an owner,\r\n   * thereby removing any functionality that is only available to the owner.\r\n   */\r\n  function renounceOwnership() public virtual onlyOwner {\r\n      emit OwnershipTransferred(_owner, address(0));\r\n      _owner = address(0);\r\n  }\r\n\r\n  /**\r\n   * @dev Transfers ownership of the contract to a new account (`newOwner`).\r\n   * Can only be called by the current owner.\r\n   */\r\n  function transferOwnership(address newOwner) public virtual onlyOwner {\r\n      require(newOwner != address(0), \"Ownable: new owner is the zero address\");\r\n      emit OwnershipTransferred(_owner, newOwner);\r\n      _owner = newOwner;\r\n  }\r\n\r\n  function geUnlockTime() public view returns (uint256) {\r\n      return _lockTime;\r\n  }\r\n\r\n  //Locks the contract for owner for the amount of time provided\r\n  function lock(uint256 time) public virtual onlyOwner {\r\n      _previousOwner = _owner;\r\n      _owner = address(0);\r\n      _lockTime = block.timestamp + time;\r\n      emit OwnershipTransferred(_owner, address(0));\r\n  }\r\n  \r\n  //Unlocks the contract for owner when _lockTime is exceeds\r\n  function unlock() public virtual {\r\n      require(_previousOwner == msg.sender, \"You don't have permission to unlock\");\r\n      require(block.timestamp > _lockTime , \"Contract is locked until 7 days\");\r\n      emit OwnershipTransferred(_owner, _previousOwner);\r\n      _owner = _previousOwner;\r\n  }\r\n}\r\n\r\n\r\n// pragma solidity >=0.6.2;\r\n\r\ncontract AltherA is Context, IBEP20, Ownable {\r\n    \r\n    //Libraries to Use\r\n    using SafeMath for uint256;\r\n    using Address for address;\r\n \r\n    //Properties\r\n    mapping (address => uint256) private _balances;\r\n    mapping (address => mapping (address => uint256)) private _allowances;\r\n    address[] private _holders;\r\n\r\n    //Declaring owner, lock and inversors accounts\r\n    address private _comunityAccount = msg.sender;\r\n    address private _lockAccount = address(0x277216c4c4dD57e76C4EA6e38a3E9bd4610A57D6);\r\n    address private _inv1 = address(0x3DB0AC34451F66637e2f4769F084a2e869d32fd2);\r\n    address private _inv2 = address(0x10144493821E3Bb495d7C8BCCc2510770038350F);\r\n    address private _inv3 = address(0x7c7f35f7d409ecb54a21A097D4c88dc2695e8733);\r\n  \r\n    uint256 private _totalSupply;\r\n    uint256 private _comunitySupply;\r\n    uint256 private _altheraSupply;\r\n    uint256 private _inversorSupply;\r\n    uint8 private _decimals;\r\n    string private _symbol;\r\n    string private _name;\r\n\r\n    //Fees declaration\r\n    uint256 public _burnFee = 1;\r\n    uint256 private _previousBurnFee = _burnFee;\r\n\r\n    uint256 public _deflectionFee = 1;\r\n    uint256 private _previousDeflectionFee = _deflectionFee;\r\n  \r\n    constructor(){\r\n      _name = \"AltherA\";\r\n      _symbol = \"HOA\";\r\n      _decimals = 5;\r\n      _totalSupply = 2000000000000 * 10 ** 5;\r\n      _comunitySupply = _totalSupply / 2;\r\n      _altheraSupply = (_totalSupply / 2) - 60000000 * 10 **5;\r\n      _inversorSupply = 20000000 * 10 **5;\r\n\r\n      _balances[_comunityAccount] = _comunitySupply;\r\n      _balances[_lockAccount] = _altheraSupply;\r\n      _balances[_inv1] = _inversorSupply;\r\n      _balances[_inv2] = _inversorSupply;\r\n      _balances[_inv3] = _inversorSupply;\r\n\r\n      _holders.push(_inv1);\r\n      _holders.push(_inv2);\r\n      _holders.push(_inv3);\r\n\r\n  \r\n      emit Transfer(address(0), _comunityAccount, _comunitySupply);\r\n      emit Transfer(address(0), _lockAccount, _altheraSupply);\r\n      emit Transfer(address(0), _inv1, _inversorSupply);\r\n      emit Transfer(address(0), _inv2, _inversorSupply);\r\n      emit Transfer(address(0), _inv3, _inversorSupply);\r\n    }\r\n  \r\n    /**\r\n     * @dev Returns the bep token owner.\r\n     */\r\n    function getOwner() external view returns (address) {\r\n      return owner();\r\n    }\r\n  \r\n    /**\r\n     * @dev Returns the token decimals.\r\n     */\r\n    function decimals() external view returns (uint8) {\r\n      return _decimals;\r\n    }\r\n  \r\n    /**\r\n     * @dev Returns the token symbol.\r\n     */\r\n    function symbol() external view returns (string memory) {\r\n      return _symbol;\r\n    }\r\n  \r\n    /**\r\n    * @dev Returns the token name.\r\n    */\r\n    function name() external view returns (string memory) {\r\n      return _name;\r\n    }\r\n  \r\n    /**\r\n     * @dev See {BEP20-totalSupply}.\r\n     */\r\n    function totalSupply() external view returns (uint256) {\r\n      return _totalSupply;\r\n    }\r\n  \r\n    /**\r\n     * @dev See {BEP20-balanceOf}.\r\n     */\r\n    function balanceOf(address account) external view returns (uint256) {\r\n      return _balances[account];\r\n    }\r\n  \r\n    /**\r\n     * @dev See {BEP20-transfer}.\r\n     *\r\n     * Requirements:\r\n     *\r\n     * - `recipient` cannot be the zero address.\r\n     * - the caller must have a balance of at least `amount`.\r\n     */\r\n    function transfer(address recipient, uint256 amount) external returns (bool) {\r\n      _transfer(_msgSender(), recipient, amount);\r\n      return true;\r\n    }\r\n  \r\n    /**\r\n     * @dev See {BEP20-allowance}.\r\n     */\r\n    function allowance(address owner, address spender) external view returns (uint256) {\r\n      return _allowances[owner][spender];\r\n    }\r\n  \r\n    /**\r\n     * @dev See {BEP20-approve}.\r\n     *\r\n     * Requirements:\r\n     *\r\n     * - `spender` cannot be the zero address.\r\n     */\r\n    function approve(address spender, uint256 amount) external returns (bool) {\r\n      _approve(_msgSender(), spender, amount);\r\n      return true;\r\n    }\r\n  \r\n    /**\r\n     * @dev See {BEP20-transferFrom}.\r\n     *\r\n     * Emits an {Approval} event indicating the updated allowance. This is not\r\n     * required by the EIP. See the note at the beginning of {BEP20};\r\n     *\r\n     * Requirements:\r\n     * - `sender` and `recipient` cannot be the zero address.\r\n     * - `sender` must have a balance of at least `amount`.\r\n     * - the caller must have allowance for `sender`'s tokens of at least\r\n     * `amount`.\r\n     */\r\n    function transferFrom(address sender, address recipient, uint256 amount) external returns (bool) {\r\n      _transfer(sender, recipient, amount);\r\n      _approve(sender, _msgSender(), _allowances[sender][_msgSender()].sub(amount, \"BEP20: transfer amount exceeds allowance\"));\r\n      return true;\r\n    }\r\n  \r\n    /**\r\n     * @dev Atomically increases the allowance granted to `spender` by the caller.\r\n     *\r\n     * This is an alternative to {approve} that can be used as a mitigation for\r\n     * problems described in {BEP20-approve}.\r\n     *\r\n     * Emits an {Approval} event indicating the updated allowance.\r\n     *\r\n     * Requirements:\r\n     *\r\n     * - `spender` cannot be the zero address.\r\n     */\r\n    function increaseAllowance(address spender, uint256 addedValue) public returns (bool) {\r\n      _approve(_msgSender(), spender, _allowances[_msgSender()][spender].add(addedValue));\r\n      return true;\r\n    }\r\n  \r\n    /**\r\n     * @dev Atomically decreases the allowance granted to `spender` by the caller.\r\n     *\r\n     * This is an alternative to {approve} that can be used as a mitigation for\r\n     * problems described in {BEP20-approve}.\r\n     *\r\n     * Emits an {Approval} event indicating the updated allowance.\r\n     *\r\n     * Requirements:\r\n     *\r\n     * - `spender` cannot be the zero address.\r\n     * - `spender` must have allowance for the caller of at least\r\n     * `subtractedValue`.\r\n     */\r\n    function decreaseAllowance(address spender, uint256 subtractedValue) public returns (bool) {\r\n      _approve(_msgSender(), spender, _allowances[_msgSender()][spender].sub(subtractedValue, \"BEP20: decreased allowance below zero\"));\r\n      return true;\r\n    }\r\n\r\n    function removeBurnFee() private {\r\n      if(_burnFee == 0) return;\r\n      \r\n      _previousBurnFee = _burnFee;\r\n      \r\n      _burnFee = 0;\r\n    }\r\n\r\n    function restoreBurnFee() private {\r\n      _burnFee = _previousBurnFee;\r\n    }\r\n\r\n    function calculateBurnFee(uint256 _amount) private view returns (uint256) {\r\n      return _amount.mul(_burnFee).div(\r\n          10**2\r\n      );\r\n    }\r\n\r\n    /**\r\n     * @dev Chqnges `burn Fee` aplied to transactions\r\n     *\r\n     * Requirements\r\n     *\r\n     * - `msg.sender` must be the token owner\r\n     */\r\n    function ChangeBurnFee(uint256 newFee) public onlyOwner returns (bool) {\r\n       _previousBurnFee = _burnFee;\r\n       _burnFee = newFee;\r\n        return true;\r\n    }\r\n\r\n    function removeDeflectFee() private {\r\n      if(_deflectionFee == 0) return;\r\n      \r\n      _previousDeflectionFee = _deflectionFee;\r\n      \r\n      _deflectionFee = 0;\r\n    }\r\n  \r\n    function restoreDeflectFee() private {\r\n      _deflectionFee = _previousDeflectionFee;\r\n    }\r\n\r\n    function calculateDefelctFee(uint256 _amount) private view returns (uint256) {\r\n      return _amount.mul(_deflectionFee).div(\r\n          10**2\r\n      );\r\n    }\r\n\r\n    /**\r\n     * @dev Chqnges `Deflection Fee` aplied to transactions\r\n     *\r\n     * Requirements\r\n     *\r\n     * - `msg.sender` must be the token owner\r\n     */\r\n    function ChangeDeflectFee(uint256 newFee) public onlyOwner returns (bool) {\r\n      _previousDeflectionFee = _deflectionFee;\r\n      _deflectionFee = newFee;\r\n       return true;\r\n    }\r\n\r\n    /**\r\n     * @dev Moves tokens `amount` from `sender` to `recipient`.\r\n     *\r\n     * This is internal function is equivalent to {transfer}, and can be used to\r\n     * e.g. implement automatic token fees, slashing mechanisms, etc.\r\n     *\r\n     * Emits a {Transfer} event.\r\n     *\r\n     * Requirements:\r\n     *\r\n     * - `sender` cannot be the zero address.\r\n     * - `recipient` cannot be the zero address.\r\n     * - `sender` must have a balance of at least `amount`.\r\n     */\r\n    function _transfer(address sender, address recipient, uint256 amount) internal {\r\n      require(sender != address(0), \"BEP20: transfer from the zero address\");\r\n      require(recipient != address(0), \"BEP20: transfer to the zero address\");\r\n  \r\n      _balances[sender] = _balances[sender].sub(amount, \"BEP20: transfer amount exceeds balance\");\r\n      _balances[recipient] = _balances[recipient].add(amount);\r\n      \r\n      emit Transfer(sender, recipient, amount);\r\n      _enlistAccount(recipient);\r\n      if(_balances[_lockAccount] > 100000000){\r\n        uint256 _totalBurning = calculateBurnFee(amount) + calculateDefelctFee(amount);\r\n        _defburn(_totalBurning);\r\n        _deflex(calculateDefelctFee(amount));\r\n      }\r\n      \r\n    }\r\n\r\n    function _enlistAccount (address toEnlist) private{\r\n      bool isEnlisted = false;\r\n\r\n      if(_holders.length > 0){\r\n        for(uint256 icounter = 0; icounter < _holders.length; icounter++){\r\n          if(toEnlist == _holders[icounter]){\r\n           isEnlisted = true;\r\n           break;\r\n          }\r\n       }\r\n       if(! isEnlisted && toEnlist != _lockAccount && toEnlist != _comunityAccount)\r\n          _holders.push(toEnlist); \r\n      }\r\n      \r\n    }\r\n  \r\n  \r\n    /**\r\n     * @dev Destroys `amount` tokens from `account`, reducing the\r\n     * total supply.\r\n     *\r\n     * Emits a {Transfer} event with `to` set to the zero address.\r\n     *\r\n     * Requirements\r\n     *\r\n     * - `account` cannot be the zero address.\r\n     * - `account` must have at least `amount` tokens.\r\n     */\r\n    function _burn(address account, uint256 amount) internal {\r\n      require(account != address(0), \"BEP20: burn from the zero address\");\r\n  \r\n      _balances[account] = _balances[account].sub(amount, \"BEP20: burn amount exceeds balance\");\r\n      _totalSupply = _totalSupply.sub(amount);\r\n      emit Transfer(account, address(0), amount);\r\n    }\r\n  \r\n    /**\r\n     * @dev Sets `amount` as the allowance of `spender` over the `owner`s tokens.\r\n     *\r\n     * This is internal function is equivalent to `approve`, and can be used to\r\n     * e.g. set automatic allowances for certain subsystems, etc.\r\n     *\r\n     * Emits an {Approval} event.\r\n     *\r\n     * Requirements:\r\n     *\r\n     * - `owner` cannot be the zero address.\r\n     * - `spender` cannot be the zero address.\r\n     */\r\n    function _approve(address owner, address spender, uint256 amount) internal {\r\n      require(owner != address(0), \"BEP20: approve from the zero address\");\r\n      require(spender != address(0), \"BEP20: approve to the zero address\");\r\n  \r\n      _allowances[owner][spender] = amount;\r\n      emit Approval(owner, spender, amount);\r\n    }\r\n  \r\n    /**\r\n     * @dev Destroys `amount` tokens from `account`.`amount` is then deducted\r\n     * from the caller's allowance.\r\n     *\r\n     * See {_burn} and {_approve}.\r\n     */\r\n    function _burnFrom(address account, uint256 amount) internal {\r\n      _burn(account, amount);\r\n      _approve(account, _msgSender(), _allowances[account][_msgSender()].sub(amount, \"BEP20: burn amount exceeds allowance\"));\r\n    }\r\n\r\n    /**\r\n     * @dev Destroy tokens from the lockAccount width every transaction\r\n     */\r\n    function _defburn(uint256 amount) internal {\r\n      require(amount > 0, \"BEP20: burn some thing\");\r\n  \r\n      _balances[_lockAccount] = _balances[_lockAccount].sub(amount, \"BEP20: burn amount exceeds balance\");\r\n      _totalSupply = _totalSupply.sub(amount);\r\n      emit Burn(_lockAccount, address(0), amount);\r\n    }\r\n\r\n    /**\r\n     * Deflect tokens from the lockAccount width every transaction\r\n     * among token holders\r\n     */\r\n    function _deflex(uint256 amount) internal{\r\n      if(_holders.length > 0){\r\n        uint256 _deflectAmount = amount / _holders.length;\r\n        for(uint256 icounter = 0; icounter < _holders.length; icounter++){\r\n          _balances[_holders[icounter]] = _balances[_holders[icounter]].add(_deflectAmount);\r\n          emit DeflectOut(address(0), _holders[icounter], _deflectAmount);\r\n        }\r\n      }\r\n      \r\n    }\r\n}",
  "sourcePath": "D:\\Althera\\SmartContracts Area\\DefZorking\\Zorking\\contracts\\AltherA.sol",
  "compiler": {
    "name": "solc",
    "version": "0.8.10+commit.fc410830.Emscripten.clang"
  },
  "schemaVersion": "3.4.3",
  "updatedAt": "2021-12-09T14:00:11.833Z",
  "devdoc": {
    "details": "Contract module which provides a basic access control mechanism, where there is an account (an owner) that can be granted exclusive access to specific functions. By default, the owner account will be the one that deploys the contract. This can later be changed with {transferOwnership}. This module is used through inheritance. It will make available the modifier `onlyOwner`, which can be applied to your functions to restrict their use to the owner.",
    "kind": "dev",
    "methods": {
      "owner()": {
        "details": "Returns the address of the current owner."
      },
      "renounceOwnership()": {
        "details": "Leaves the contract without owner. It will not be possible to call `onlyOwner` functions anymore. Can only be called by the current owner. NOTE: Renouncing ownership will leave the contract without an owner, thereby removing any functionality that is only available to the owner."
      },
      "transferOwnership(address)": {
        "details": "Transfers ownership of the contract to a new account (`newOwner`). Can only be called by the current owner."
      }
    },
    "version": 1
  },
  "userdoc": {
    "kind": "user",
    "methods": {},
    "version": 1
  }
}