{
  "contractName": "Zorking",
  "abi": [
    {
      "inputs": [],
      "stateMutability": "nonpayable",
      "type": "constructor"
    },
    {
      "anonymous": false,
      "inputs": [
        {
          "indexed": true,
          "internalType": "address",
          "name": "owner",
          "type": "address"
        },
        {
          "indexed": true,
          "internalType": "address",
          "name": "spender",
          "type": "address"
        },
        {
          "indexed": false,
          "internalType": "uint256",
          "name": "value",
          "type": "uint256"
        }
      ],
      "name": "Approval",
      "type": "event"
    },
    {
      "anonymous": false,
      "inputs": [
        {
          "indexed": true,
          "internalType": "address",
          "name": "from",
          "type": "address"
        },
        {
          "indexed": true,
          "internalType": "address",
          "name": "to",
          "type": "address"
        },
        {
          "indexed": false,
          "internalType": "uint256",
          "name": "value",
          "type": "uint256"
        }
      ],
      "name": "Burn",
      "type": "event"
    },
    {
      "anonymous": false,
      "inputs": [
        {
          "indexed": true,
          "internalType": "address",
          "name": "previousOwner",
          "type": "address"
        },
        {
          "indexed": true,
          "internalType": "address",
          "name": "newOwner",
          "type": "address"
        }
      ],
      "name": "OwnershipTransferred",
      "type": "event"
    },
    {
      "anonymous": false,
      "inputs": [
        {
          "indexed": true,
          "internalType": "address",
          "name": "from",
          "type": "address"
        },
        {
          "indexed": true,
          "internalType": "address",
          "name": "to",
          "type": "address"
        },
        {
          "indexed": false,
          "internalType": "uint256",
          "name": "value",
          "type": "uint256"
        }
      ],
      "name": "Transfer",
      "type": "event"
    },
    {
      "inputs": [],
      "name": "_burnFee",
      "outputs": [
        {
          "internalType": "uint256",
          "name": "",
          "type": "uint256"
        }
      ],
      "stateMutability": "view",
      "type": "function",
      "constant": true
    },
    {
      "inputs": [],
      "name": "_maxTxAmount",
      "outputs": [
        {
          "internalType": "uint256",
          "name": "",
          "type": "uint256"
        }
      ],
      "stateMutability": "view",
      "type": "function",
      "constant": true
    },
    {
      "inputs": [],
      "name": "_reflectFee",
      "outputs": [
        {
          "internalType": "uint256",
          "name": "",
          "type": "uint256"
        }
      ],
      "stateMutability": "view",
      "type": "function",
      "constant": true
    },
    {
      "inputs": [],
      "name": "geUnlockTime",
      "outputs": [
        {
          "internalType": "uint256",
          "name": "",
          "type": "uint256"
        }
      ],
      "stateMutability": "view",
      "type": "function",
      "constant": true
    },
    {
      "inputs": [
        {
          "internalType": "uint256",
          "name": "time",
          "type": "uint256"
        }
      ],
      "name": "lock",
      "outputs": [],
      "stateMutability": "nonpayable",
      "type": "function"
    },
    {
      "inputs": [],
      "name": "owner",
      "outputs": [
        {
          "internalType": "address",
          "name": "",
          "type": "address"
        }
      ],
      "stateMutability": "view",
      "type": "function",
      "constant": true
    },
    {
      "inputs": [],
      "name": "renounceOwnership",
      "outputs": [],
      "stateMutability": "nonpayable",
      "type": "function"
    },
    {
      "inputs": [
        {
          "internalType": "address",
          "name": "newOwner",
          "type": "address"
        }
      ],
      "name": "transferOwnership",
      "outputs": [],
      "stateMutability": "nonpayable",
      "type": "function"
    },
    {
      "inputs": [],
      "name": "unlock",
      "outputs": [],
      "stateMutability": "nonpayable",
      "type": "function"
    },
    {
      "stateMutability": "payable",
      "type": "receive",
      "payable": true
    },
    {
      "inputs": [],
      "name": "name",
      "outputs": [
        {
          "internalType": "string",
          "name": "",
          "type": "string"
        }
      ],
      "stateMutability": "view",
      "type": "function",
      "constant": true
    },
    {
      "inputs": [],
      "name": "symbol",
      "outputs": [
        {
          "internalType": "string",
          "name": "",
          "type": "string"
        }
      ],
      "stateMutability": "view",
      "type": "function",
      "constant": true
    },
    {
      "inputs": [],
      "name": "decimals",
      "outputs": [
        {
          "internalType": "uint8",
          "name": "",
          "type": "uint8"
        }
      ],
      "stateMutability": "view",
      "type": "function",
      "constant": true
    },
    {
      "inputs": [],
      "name": "totalSupply",
      "outputs": [
        {
          "internalType": "uint256",
          "name": "",
          "type": "uint256"
        }
      ],
      "stateMutability": "view",
      "type": "function",
      "constant": true
    },
    {
      "inputs": [
        {
          "internalType": "address",
          "name": "account",
          "type": "address"
        }
      ],
      "name": "balanceOf",
      "outputs": [
        {
          "internalType": "uint256",
          "name": "",
          "type": "uint256"
        }
      ],
      "stateMutability": "view",
      "type": "function",
      "constant": true
    },
    {
      "inputs": [
        {
          "internalType": "address",
          "name": "recipient",
          "type": "address"
        },
        {
          "internalType": "uint256",
          "name": "amount",
          "type": "uint256"
        }
      ],
      "name": "transfer",
      "outputs": [
        {
          "internalType": "bool",
          "name": "",
          "type": "bool"
        }
      ],
      "stateMutability": "nonpayable",
      "type": "function"
    },
    {
      "inputs": [
        {
          "internalType": "address",
          "name": "owner",
          "type": "address"
        },
        {
          "internalType": "address",
          "name": "spender",
          "type": "address"
        }
      ],
      "name": "allowance",
      "outputs": [
        {
          "internalType": "uint256",
          "name": "",
          "type": "uint256"
        }
      ],
      "stateMutability": "view",
      "type": "function",
      "constant": true
    },
    {
      "inputs": [
        {
          "internalType": "address",
          "name": "spender",
          "type": "address"
        },
        {
          "internalType": "uint256",
          "name": "amount",
          "type": "uint256"
        }
      ],
      "name": "approve",
      "outputs": [
        {
          "internalType": "bool",
          "name": "",
          "type": "bool"
        }
      ],
      "stateMutability": "nonpayable",
      "type": "function"
    },
    {
      "inputs": [
        {
          "internalType": "address",
          "name": "sender",
          "type": "address"
        },
        {
          "internalType": "address",
          "name": "recipient",
          "type": "address"
        },
        {
          "internalType": "uint256",
          "name": "amount",
          "type": "uint256"
        }
      ],
      "name": "transferFrom",
      "outputs": [
        {
          "internalType": "bool",
          "name": "",
          "type": "bool"
        }
      ],
      "stateMutability": "nonpayable",
      "type": "function"
    },
    {
      "inputs": [
        {
          "internalType": "address",
          "name": "spender",
          "type": "address"
        },
        {
          "internalType": "uint256",
          "name": "addedValue",
          "type": "uint256"
        }
      ],
      "name": "increaseAllowance",
      "outputs": [
        {
          "internalType": "bool",
          "name": "",
          "type": "bool"
        }
      ],
      "stateMutability": "nonpayable",
      "type": "function"
    },
    {
      "inputs": [
        {
          "internalType": "address",
          "name": "spender",
          "type": "address"
        },
        {
          "internalType": "uint256",
          "name": "subtractedValue",
          "type": "uint256"
        }
      ],
      "name": "decreaseAllowance",
      "outputs": [
        {
          "internalType": "bool",
          "name": "",
          "type": "bool"
        }
      ],
      "stateMutability": "nonpayable",
      "type": "function"
    },
    {
      "inputs": [],
      "name": "totalFees",
      "outputs": [
        {
          "internalType": "uint256",
          "name": "",
          "type": "uint256"
        }
      ],
      "stateMutability": "view",
      "type": "function",
      "constant": true
    },
    {
      "inputs": [
        {
          "internalType": "uint256",
          "name": "burnFee",
          "type": "uint256"
        }
      ],
      "name": "setBurnFeePercent",
      "outputs": [],
      "stateMutability": "nonpayable",
      "type": "function"
    },
    {
      "inputs": [
        {
          "internalType": "uint256",
          "name": "reflectFee",
          "type": "uint256"
        }
      ],
      "name": "setReflectFeePercent",
      "outputs": [],
      "stateMutability": "nonpayable",
      "type": "function"
    }
  ],
  "bytecode": "0x60806040526702c68af0bb140000600855600260085462000021919062000905565b600955650574fbde600060026008546200003c919062000905565b6200004891906200093d565b600a556501d1a94a2000600b55734ddfbd49e987d25b64b0979c6ce85910ae59fb1b600d60006101000a81548173ffffffffffffffffffffffffffffffffffffffff021916908373ffffffffffffffffffffffffffffffffffffffff16021790555073be1e40c5d0788fb4ea102d0d49f2bbae51d1969f600e60006101000a81548173ffffffffffffffffffffffffffffffffffffffff021916908373ffffffffffffffffffffffffffffffffffffffff160217905550734cbd85661e56759959b67955b3507bec8be6c267600f60006101000a81548173ffffffffffffffffffffffffffffffffffffffff021916908373ffffffffffffffffffffffffffffffffffffffff16021790555073acbfb194c30c2ee00de2919868e1a9b169518ecd601060006101000a81548173ffffffffffffffffffffffffffffffffffffffff021916908373ffffffffffffffffffffffffffffffffffffffff1602179055506040518060400160405280600781526020017f5a6f726b696e670000000000000000000000000000000000000000000000000081525060119080519060200190620001f6929190620007ed565b506040518060400160405280600381526020017f5a4b4700000000000000000000000000000000000000000000000000000000008152506012908051906020019062000244929190620007ed565b506005601360006101000a81548160ff021916908360ff16021790555060016014556014546015556001601655601654601755670163400361aba0006018553480156200029057600080fd5b506000620002a3620007e560201b60201c565b9050806000806101000a81548173ffffffffffffffffffffffffffffffffffffffff021916908373ffffffffffffffffffffffffffffffffffffffff1602179055508073ffffffffffffffffffffffffffffffffffffffff16600073ffffffffffffffffffffffffffffffffffffffff167f8be0079c531659141344cd1fd0a4f28419497f9722a3daafe3b4186f6b6457e060405160405180910390a3506009546003600062000358620007e560201b60201c565b73ffffffffffffffffffffffffffffffffffffffff1673ffffffffffffffffffffffffffffffffffffffff16815260200190815260200160002081905550600a5460036000600d60009054906101000a900473ffffffffffffffffffffffffffffffffffffffff1673ffffffffffffffffffffffffffffffffffffffff1673ffffffffffffffffffffffffffffffffffffffff16815260200190815260200160002081905550600b5460036000600e60009054906101000a900473ffffffffffffffffffffffffffffffffffffffff1673ffffffffffffffffffffffffffffffffffffffff1673ffffffffffffffffffffffffffffffffffffffff16815260200190815260200160002081905550600b5460036000600f60009054906101000a900473ffffffffffffffffffffffffffffffffffffffff1673ffffffffffffffffffffffffffffffffffffffff1673ffffffffffffffffffffffffffffffffffffffff16815260200190815260200160002081905550600b5460036000601060009054906101000a900473ffffffffffffffffffffffffffffffffffffffff1673ffffffffffffffffffffffffffffffffffffffff1673ffffffffffffffffffffffffffffffffffffffff1681526020019081526020016000208190555062000546620007e560201b60201c565b73ffffffffffffffffffffffffffffffffffffffff16600073ffffffffffffffffffffffffffffffffffffffff167fddf252ad1be2c89b69c2b068fc378daa952ba7f163c4a11628f55a4df523b3ef600954604051620005a7919062000989565b60405180910390a3600d60009054906101000a900473ffffffffffffffffffffffffffffffffffffffff1673ffffffffffffffffffffffffffffffffffffffff16600073ffffffffffffffffffffffffffffffffffffffff167fddf252ad1be2c89b69c2b068fc378daa952ba7f163c4a11628f55a4df523b3ef600a5460405162000633919062000989565b60405180910390a3600e60009054906101000a900473ffffffffffffffffffffffffffffffffffffffff1673ffffffffffffffffffffffffffffffffffffffff16600073ffffffffffffffffffffffffffffffffffffffff167fddf252ad1be2c89b69c2b068fc378daa952ba7f163c4a11628f55a4df523b3ef600b54604051620006bf919062000989565b60405180910390a3600f60009054906101000a900473ffffffffffffffffffffffffffffffffffffffff1673ffffffffffffffffffffffffffffffffffffffff16600073ffffffffffffffffffffffffffffffffffffffff167fddf252ad1be2c89b69c2b068fc378daa952ba7f163c4a11628f55a4df523b3ef600b546040516200074b919062000989565b60405180910390a3601060009054906101000a900473ffffffffffffffffffffffffffffffffffffffff1673ffffffffffffffffffffffffffffffffffffffff16600073ffffffffffffffffffffffffffffffffffffffff167fddf252ad1be2c89b69c2b068fc378daa952ba7f163c4a11628f55a4df523b3ef600b54604051620007d7919062000989565b60405180910390a362000a0b565b600033905090565b828054620007fb90620009d5565b90600052602060002090601f0160209004810192826200081f57600085556200086b565b82601f106200083a57805160ff19168380011785556200086b565b828001600101855582156200086b579182015b828111156200086a5782518255916020019190600101906200084d565b5b5090506200087a91906200087e565b5090565b5b80821115620008995760008160009055506001016200087f565b5090565b6000819050919050565b7f4e487b7100000000000000000000000000000000000000000000000000000000600052601260045260246000fd5b7f4e487b7100000000000000000000000000000000000000000000000000000000600052601160045260246000fd5b600062000912826200089d565b91506200091f836200089d565b925082620009325762000931620008a7565b5b828204905092915050565b60006200094a826200089d565b915062000957836200089d565b9250828210156200096d576200096c620008d6565b5b828203905092915050565b62000983816200089d565b82525050565b6000602082019050620009a0600083018462000978565b92915050565b7f4e487b7100000000000000000000000000000000000000000000000000000000600052602260045260246000fd5b60006002820490506001821680620009ee57607f821691505b6020821081141562000a055762000a04620009a6565b5b50919050565b6129ef8062000a1b6000396000f3fe6080604052600436106101445760003560e01c80637d1db4a5116100b6578063b6c523241161006f578063b6c523241461046d578063c0b0fda214610498578063cea26958146104c3578063dd467064146104ec578063dd62ed3e14610515578063f2fde38b146105525761014b565b80637d1db4a51461035b5780638da5cb5b1461038657806395d89b41146103b1578063a457c2d7146103dc578063a69df4b514610419578063a9059cbb146104305761014b565b806323b872dd1161010857806323b872dd14610239578063313ce5671461027657806339509351146102a15780633bb48ff7146102de57806370a0823114610307578063715018a6146103445761014b565b806306fdde0314610150578063095ea7b31461017b57806313114a9d146101b857806315639c1b146101e357806318160ddd1461020e5761014b565b3661014b57005b600080fd5b34801561015c57600080fd5b5061016561057b565b6040516101729190611dfb565b60405180910390f35b34801561018757600080fd5b506101a2600480360381019061019d9190611eb6565b61060d565b6040516101af9190611f11565b60405180910390f35b3480156101c457600080fd5b506101cd61062b565b6040516101da9190611f3b565b60405180910390f35b3480156101ef57600080fd5b506101f8610635565b6040516102059190611f3b565b60405180910390f35b34801561021a57600080fd5b5061022361063b565b6040516102309190611f3b565b60405180910390f35b34801561024557600080fd5b50610260600480360381019061025b9190611f56565b610645565b60405161026d9190611f11565b60405180910390f35b34801561028257600080fd5b5061028b61071e565b6040516102989190611fc5565b60405180910390f35b3480156102ad57600080fd5b506102c860048036038101906102c39190611eb6565b610735565b6040516102d59190611f11565b60405180910390f35b3480156102ea57600080fd5b5061030560048036038101906103009190611fe0565b6107e8565b005b34801561031357600080fd5b5061032e6004803603810190610329919061200d565b610887565b60405161033b9190611f3b565b60405180910390f35b34801561035057600080fd5b506103596108d0565b005b34801561036757600080fd5b50610370610a23565b60405161037d9190611f3b565b60405180910390f35b34801561039257600080fd5b5061039b610a29565b6040516103a89190612049565b60405180910390f35b3480156103bd57600080fd5b506103c6610a52565b6040516103d39190611dfb565b60405180910390f35b3480156103e857600080fd5b5061040360048036038101906103fe9190611eb6565b610ae4565b6040516104109190611f11565b60405180910390f35b34801561042557600080fd5b5061042e610bb1565b005b34801561043c57600080fd5b5061045760048036038101906104529190611eb6565b610d85565b6040516104649190611f11565b60405180910390f35b34801561047957600080fd5b50610482610da3565b60405161048f9190611f3b565b60405180910390f35b3480156104a457600080fd5b506104ad610dad565b6040516104ba9190611f3b565b60405180910390f35b3480156104cf57600080fd5b506104ea60048036038101906104e59190611fe0565b610db3565b005b3480156104f857600080fd5b50610513600480360381019061050e9190611fe0565b610e52565b005b34801561052157600080fd5b5061053c60048036038101906105379190612064565b611019565b6040516105499190611f3b565b60405180910390f35b34801561055e57600080fd5b506105796004803603810190610574919061200d565b6110a0565b005b60606011805461058a906120d3565b80601f01602080910402602001604051908101604052809291908181526020018280546105b6906120d3565b80156106035780601f106105d857610100808354040283529160200191610603565b820191906000526020600020905b8154815290600101906020018083116105e657829003601f168201915b5050505050905090565b600061062161061a611262565b848461126a565b6001905092915050565b6000600c54905090565b60165481565b6000600854905090565b6000610652848484611435565b6107138461065e611262565b61070e8560405180606001604052806028815260200161294b60289139600460008b73ffffffffffffffffffffffffffffffffffffffff1673ffffffffffffffffffffffffffffffffffffffff16815260200190815260200160002060006106c4611262565b73ffffffffffffffffffffffffffffffffffffffff1673ffffffffffffffffffffffffffffffffffffffff168152602001908152602001600020546116469092919063ffffffff16565b61126a565b600190509392505050565b6000601360009054906101000a900460ff16905090565b60006107de610742611262565b846107d98560046000610753611262565b73ffffffffffffffffffffffffffffffffffffffff1673ffffffffffffffffffffffffffffffffffffffff16815260200190815260200160002060008973ffffffffffffffffffffffffffffffffffffffff1673ffffffffffffffffffffffffffffffffffffffff168152602001908152602001600020546116aa90919063ffffffff16565b61126a565b6001905092915050565b6107f0611262565b73ffffffffffffffffffffffffffffffffffffffff1660008054906101000a900473ffffffffffffffffffffffffffffffffffffffff1673ffffffffffffffffffffffffffffffffffffffff161461087d576040517f08c379a000000000000000000000000000000000000000000000000000000000815260040161087490612151565b60405180910390fd5b8060168190555050565b6000600360008373ffffffffffffffffffffffffffffffffffffffff1673ffffffffffffffffffffffffffffffffffffffff168152602001908152602001600020549050919050565b6108d8611262565b73ffffffffffffffffffffffffffffffffffffffff1660008054906101000a900473ffffffffffffffffffffffffffffffffffffffff1673ffffffffffffffffffffffffffffffffffffffff1614610965576040517f08c379a000000000000000000000000000000000000000000000000000000000815260040161095c90612151565b60405180910390fd5b600073ffffffffffffffffffffffffffffffffffffffff1660008054906101000a900473ffffffffffffffffffffffffffffffffffffffff1673ffffffffffffffffffffffffffffffffffffffff167f8be0079c531659141344cd1fd0a4f28419497f9722a3daafe3b4186f6b6457e060405160405180910390a360008060006101000a81548173ffffffffffffffffffffffffffffffffffffffff021916908373ffffffffffffffffffffffffffffffffffffffff160217905550565b60185481565b60008060009054906101000a900473ffffffffffffffffffffffffffffffffffffffff16905090565b606060128054610a61906120d3565b80601f0160208091040260200160405190810160405280929190818152602001828054610a8d906120d3565b8015610ada5780601f10610aaf57610100808354040283529160200191610ada565b820191906000526020600020905b815481529060010190602001808311610abd57829003601f168201915b5050505050905090565b6000610ba7610af1611262565b84610ba2856040518060600160405280602581526020016129736025913960046000610b1b611262565b73ffffffffffffffffffffffffffffffffffffffff1673ffffffffffffffffffffffffffffffffffffffff16815260200190815260200160002060008a73ffffffffffffffffffffffffffffffffffffffff1673ffffffffffffffffffffffffffffffffffffffff168152602001908152602001600020546116469092919063ffffffff16565b61126a565b6001905092915050565b3373ffffffffffffffffffffffffffffffffffffffff16600160009054906101000a900473ffffffffffffffffffffffffffffffffffffffff1673ffffffffffffffffffffffffffffffffffffffff1614610c41576040517f08c379a0000000000000000000000000000000000000000000000000000000008152600401610c38906121e3565b60405180910390fd5b6002544211610c85576040517f08c379a0000000000000000000000000000000000000000000000000000000008152600401610c7c9061224f565b60405180910390fd5b600160009054906101000a900473ffffffffffffffffffffffffffffffffffffffff1673ffffffffffffffffffffffffffffffffffffffff1660008054906101000a900473ffffffffffffffffffffffffffffffffffffffff1673ffffffffffffffffffffffffffffffffffffffff167f8be0079c531659141344cd1fd0a4f28419497f9722a3daafe3b4186f6b6457e060405160405180910390a3600160009054906101000a900473ffffffffffffffffffffffffffffffffffffffff166000806101000a81548173ffffffffffffffffffffffffffffffffffffffff021916908373ffffffffffffffffffffffffffffffffffffffff160217905550565b6000610d99610d92611262565b8484611435565b6001905092915050565b6000600254905090565b60145481565b610dbb611262565b73ffffffffffffffffffffffffffffffffffffffff1660008054906101000a900473ffffffffffffffffffffffffffffffffffffffff1673ffffffffffffffffffffffffffffffffffffffff1614610e48576040517f08c379a0000000000000000000000000000000000000000000000000000000008152600401610e3f90612151565b60405180910390fd5b8060148190555050565b610e5a611262565b73ffffffffffffffffffffffffffffffffffffffff1660008054906101000a900473ffffffffffffffffffffffffffffffffffffffff1673ffffffffffffffffffffffffffffffffffffffff1614610ee7576040517f08c379a0000000000000000000000000000000000000000000000000000000008152600401610ede90612151565b60405180910390fd5b60008054906101000a900473ffffffffffffffffffffffffffffffffffffffff16600160006101000a81548173ffffffffffffffffffffffffffffffffffffffff021916908373ffffffffffffffffffffffffffffffffffffffff16021790555060008060006101000a81548173ffffffffffffffffffffffffffffffffffffffff021916908373ffffffffffffffffffffffffffffffffffffffff1602179055508042610f95919061229e565b600281905550600073ffffffffffffffffffffffffffffffffffffffff1660008054906101000a900473ffffffffffffffffffffffffffffffffffffffff1673ffffffffffffffffffffffffffffffffffffffff167f8be0079c531659141344cd1fd0a4f28419497f9722a3daafe3b4186f6b6457e060405160405180910390a350565b6000600460008473ffffffffffffffffffffffffffffffffffffffff1673ffffffffffffffffffffffffffffffffffffffff16815260200190815260200160002060008373ffffffffffffffffffffffffffffffffffffffff1673ffffffffffffffffffffffffffffffffffffffff16815260200190815260200160002054905092915050565b6110a8611262565b73ffffffffffffffffffffffffffffffffffffffff1660008054906101000a900473ffffffffffffffffffffffffffffffffffffffff1673ffffffffffffffffffffffffffffffffffffffff1614611135576040517f08c379a000000000000000000000000000000000000000000000000000000000815260040161112c90612151565b60405180910390fd5b600073ffffffffffffffffffffffffffffffffffffffff168173ffffffffffffffffffffffffffffffffffffffff1614156111a5576040517f08c379a000000000000000000000000000000000000000000000000000000000815260040161119c90612366565b60405180910390fd5b8073ffffffffffffffffffffffffffffffffffffffff1660008054906101000a900473ffffffffffffffffffffffffffffffffffffffff1673ffffffffffffffffffffffffffffffffffffffff167f8be0079c531659141344cd1fd0a4f28419497f9722a3daafe3b4186f6b6457e060405160405180910390a3806000806101000a81548173ffffffffffffffffffffffffffffffffffffffff021916908373ffffffffffffffffffffffffffffffffffffffff16021790555050565b600033905090565b600073ffffffffffffffffffffffffffffffffffffffff168373ffffffffffffffffffffffffffffffffffffffff1614156112da576040517f08c379a00000000000000000000000000000000000000000000000000000000081526004016112d1906123f8565b60405180910390fd5b600073ffffffffffffffffffffffffffffffffffffffff168273ffffffffffffffffffffffffffffffffffffffff16141561134a576040517f08c379a00000000000000000000000000000000000000000000000000000000081526004016113419061248a565b60405180910390fd5b80600460008573ffffffffffffffffffffffffffffffffffffffff1673ffffffffffffffffffffffffffffffffffffffff16815260200190815260200160002060008473ffffffffffffffffffffffffffffffffffffffff1673ffffffffffffffffffffffffffffffffffffffff168152602001908152602001600020819055508173ffffffffffffffffffffffffffffffffffffffff168373ffffffffffffffffffffffffffffffffffffffff167f8c5be1e5ebec7d5bd14f71427d1e84f3dd0314c0f7b2291e5b200ac8c7c3b925836040516114289190611f3b565b60405180910390a3505050565b600073ffffffffffffffffffffffffffffffffffffffff168373ffffffffffffffffffffffffffffffffffffffff1614156114a5576040517f08c379a000000000000000000000000000000000000000000000000000000000815260040161149c9061251c565b60405180910390fd5b600073ffffffffffffffffffffffffffffffffffffffff168273ffffffffffffffffffffffffffffffffffffffff161415611515576040517f08c379a000000000000000000000000000000000000000000000000000000000815260040161150c906125ae565b60405180910390fd5b60008111611558576040517f08c379a000000000000000000000000000000000000000000000000000000000815260040161154f90612640565b60405180910390fd5b611560610a29565b73ffffffffffffffffffffffffffffffffffffffff168373ffffffffffffffffffffffffffffffffffffffff16141580156115ce575061159e610a29565b73ffffffffffffffffffffffffffffffffffffffff168273ffffffffffffffffffffffffffffffffffffffff1614155b1561161957601854811115611618576040517f08c379a000000000000000000000000000000000000000000000000000000000815260040161160f906126d2565b60405180910390fd5b5b600061162430610887565b905060185481106116355760185490505b611640848484611708565b50505050565b600083831115829061168e576040517f08c379a00000000000000000000000000000000000000000000000000000000081526004016116859190611dfb565b60405180910390fd5b506000838561169d91906126f2565b9050809150509392505050565b60008082846116b9919061229e565b9050838110156116fe576040517f08c379a00000000000000000000000000000000000000000000000000000000081526004016116f590612772565b60405180910390fd5b8091505092915050565b611713838383611718565b505050565b600080611724836118d0565b9150915061177a83600360008873ffffffffffffffffffffffffffffffffffffffff1673ffffffffffffffffffffffffffffffffffffffff168152602001908152602001600020546118f090919063ffffffff16565b600360008773ffffffffffffffffffffffffffffffffffffffff1673ffffffffffffffffffffffffffffffffffffffff1681526020019081526020016000208190555061180f83600360008773ffffffffffffffffffffffffffffffffffffffff1673ffffffffffffffffffffffffffffffffffffffff168152602001908152602001600020546116aa90919063ffffffff16565b600360008673ffffffffffffffffffffffffffffffffffffffff1673ffffffffffffffffffffffffffffffffffffffff1681526020019081526020016000208190555061185b8161193a565b611864826119d2565b8373ffffffffffffffffffffffffffffffffffffffff168573ffffffffffffffffffffffffffffffffffffffff167fddf252ad1be2c89b69c2b068fc378daa952ba7f163c4a11628f55a4df523b3ef856040516118c19190611f3b565b60405180910390a35050505050565b6000806000806118df85611bae565b915091508181935093505050915091565b600061193283836040518060400160405280601e81526020017f536166654d6174683a207375627472616374696f6e206f766572666c6f770000815250611646565b905092915050565b61194f816009546118f090919063ffffffff16565b60036000600d60009054906101000a900473ffffffffffffffffffffffffffffffffffffffff1673ffffffffffffffffffffffffffffffffffffffff1673ffffffffffffffffffffffffffffffffffffffff168152602001908152602001600020819055506119c981600c546116aa90919063ffffffff16565b600c8190555050565b60008111611a15576040517f08c379a0000000000000000000000000000000000000000000000000000000008152600401611a0c906127de565b60405180910390fd5b611aa3816040518060600160405280602281526020016129986022913960036000600d60009054906101000a900473ffffffffffffffffffffffffffffffffffffffff1673ffffffffffffffffffffffffffffffffffffffff1673ffffffffffffffffffffffffffffffffffffffff168152602001908152602001600020546116469092919063ffffffff16565b60036000600d60009054906101000a900473ffffffffffffffffffffffffffffffffffffffff1673ffffffffffffffffffffffffffffffffffffffff1673ffffffffffffffffffffffffffffffffffffffff16815260200190815260200160002081905550611b1d816008546118f090919063ffffffff16565b600881905550600073ffffffffffffffffffffffffffffffffffffffff16600d60009054906101000a900473ffffffffffffffffffffffffffffffffffffffff1673ffffffffffffffffffffffffffffffffffffffff167fbac40739b0d4ca32fa2d82fc91630465ba3eddd1598da6fca393b26fb63b945383604051611ba39190611f3b565b60405180910390a350565b6000806000611bbc84611bd8565b90506000611bc985611c09565b90508181935093505050915091565b6000611c026064611bf460145485611c3a90919063ffffffff16565b611cb590919063ffffffff16565b9050919050565b6000611c336064611c2560165485611c3a90919063ffffffff16565b611cb590919063ffffffff16565b9050919050565b600080831415611c4d5760009050611caf565b60008284611c5b91906127fe565b9050828482611c6a9190612887565b14611caa576040517f08c379a0000000000000000000000000000000000000000000000000000000008152600401611ca19061292a565b60405180910390fd5b809150505b92915050565b6000611cf783836040518060400160405280601a81526020017f536166654d6174683a206469766973696f6e206279207a65726f000000000000815250611cff565b905092915050565b60008083118290611d46576040517f08c379a0000000000000000000000000000000000000000000000000000000008152600401611d3d9190611dfb565b60405180910390fd5b5060008385611d559190612887565b9050809150509392505050565b600081519050919050565b600082825260208201905092915050565b60005b83811015611d9c578082015181840152602081019050611d81565b83811115611dab576000848401525b50505050565b6000601f19601f8301169050919050565b6000611dcd82611d62565b611dd78185611d6d565b9350611de7818560208601611d7e565b611df081611db1565b840191505092915050565b60006020820190508181036000830152611e158184611dc2565b905092915050565b600080fd5b600073ffffffffffffffffffffffffffffffffffffffff82169050919050565b6000611e4d82611e22565b9050919050565b611e5d81611e42565b8114611e6857600080fd5b50565b600081359050611e7a81611e54565b92915050565b6000819050919050565b611e9381611e80565b8114611e9e57600080fd5b50565b600081359050611eb081611e8a565b92915050565b60008060408385031215611ecd57611ecc611e1d565b5b6000611edb85828601611e6b565b9250506020611eec85828601611ea1565b9150509250929050565b60008115159050919050565b611f0b81611ef6565b82525050565b6000602082019050611f266000830184611f02565b92915050565b611f3581611e80565b82525050565b6000602082019050611f506000830184611f2c565b92915050565b600080600060608486031215611f6f57611f6e611e1d565b5b6000611f7d86828701611e6b565b9350506020611f8e86828701611e6b565b9250506040611f9f86828701611ea1565b9150509250925092565b600060ff82169050919050565b611fbf81611fa9565b82525050565b6000602082019050611fda6000830184611fb6565b92915050565b600060208284031215611ff657611ff5611e1d565b5b600061200484828501611ea1565b91505092915050565b60006020828403121561202357612022611e1d565b5b600061203184828501611e6b565b91505092915050565b61204381611e42565b82525050565b600060208201905061205e600083018461203a565b92915050565b6000806040838503121561207b5761207a611e1d565b5b600061208985828601611e6b565b925050602061209a85828601611e6b565b9150509250929050565b7f4e487b7100000000000000000000000000000000000000000000000000000000600052602260045260246000fd5b600060028204905060018216806120eb57607f821691505b602082108114156120ff576120fe6120a4565b5b50919050565b7f4f776e61626c653a2063616c6c6572206973206e6f7420746865206f776e6572600082015250565b600061213b602083611d6d565b915061214682612105565b602082019050919050565b6000602082019050818103600083015261216a8161212e565b9050919050565b7f596f7520646f6e27742068617665207065726d697373696f6e20746f20756e6c60008201527f6f636b0000000000000000000000000000000000000000000000000000000000602082015250565b60006121cd602383611d6d565b91506121d882612171565b604082019050919050565b600060208201905081810360008301526121fc816121c0565b9050919050565b7f436f6e7472616374206973206c6f636b656420756e74696c2037206461797300600082015250565b6000612239601f83611d6d565b915061224482612203565b602082019050919050565b600060208201905081810360008301526122688161222c565b9050919050565b7f4e487b7100000000000000000000000000000000000000000000000000000000600052601160045260246000fd5b60006122a982611e80565b91506122b483611e80565b9250827fffffffffffffffffffffffffffffffffffffffffffffffffffffffffffffffff038211156122e9576122e861226f565b5b828201905092915050565b7f4f776e61626c653a206e6577206f776e657220697320746865207a65726f206160008201527f6464726573730000000000000000000000000000000000000000000000000000602082015250565b6000612350602683611d6d565b915061235b826122f4565b604082019050919050565b6000602082019050818103600083015261237f81612343565b9050919050565b7f42455032303a20617070726f76652066726f6d20746865207a65726f2061646460008201527f7265737300000000000000000000000000000000000000000000000000000000602082015250565b60006123e2602483611d6d565b91506123ed82612386565b604082019050919050565b60006020820190508181036000830152612411816123d5565b9050919050565b7f42455032303a20617070726f766520746f20746865207a65726f20616464726560008201527f7373000000000000000000000000000000000000000000000000000000000000602082015250565b6000612474602283611d6d565b915061247f82612418565b604082019050919050565b600060208201905081810360008301526124a381612467565b9050919050565b7f42455032303a207472616e736665722066726f6d20746865207a65726f20616460008201527f6472657373000000000000000000000000000000000000000000000000000000602082015250565b6000612506602583611d6d565b9150612511826124aa565b604082019050919050565b60006020820190508181036000830152612535816124f9565b9050919050565b7f42455032303a207472616e7366657220746f20746865207a65726f206164647260008201527f6573730000000000000000000000000000000000000000000000000000000000602082015250565b6000612598602383611d6d565b91506125a38261253c565b604082019050919050565b600060208201905081810360008301526125c78161258b565b9050919050565b7f5472616e7366657220616d6f756e74206d75737420626520677265617465722060008201527f7468616e207a65726f0000000000000000000000000000000000000000000000602082015250565b600061262a602983611d6d565b9150612635826125ce565b604082019050919050565b600060208201905081810360008301526126598161261d565b9050919050565b7f5472616e7366657220616d6f756e74206578636565647320746865206d61785460008201527f78416d6f756e742e000000000000000000000000000000000000000000000000602082015250565b60006126bc602883611d6d565b91506126c782612660565b604082019050919050565b600060208201905081810360008301526126eb816126af565b9050919050565b60006126fd82611e80565b915061270883611e80565b92508282101561271b5761271a61226f565b5b828203905092915050565b7f536166654d6174683a206164646974696f6e206f766572666c6f770000000000600082015250565b600061275c601b83611d6d565b915061276782612726565b602082019050919050565b6000602082019050818103600083015261278b8161274f565b9050919050565b7f42455032303a206275726e20736f6d65207468696e6700000000000000000000600082015250565b60006127c8601683611d6d565b91506127d382612792565b602082019050919050565b600060208201905081810360008301526127f7816127bb565b9050919050565b600061280982611e80565b915061281483611e80565b9250817fffffffffffffffffffffffffffffffffffffffffffffffffffffffffffffffff048311821515161561284d5761284c61226f565b5b828202905092915050565b7f4e487b7100000000000000000000000000000000000000000000000000000000600052601260045260246000fd5b600061289282611e80565b915061289d83611e80565b9250826128ad576128ac612858565b5b828204905092915050565b7f536166654d6174683a206d756c7469706c69636174696f6e206f766572666c6f60008201527f7700000000000000000000000000000000000000000000000000000000000000602082015250565b6000612914602183611d6d565b915061291f826128b8565b604082019050919050565b6000602082019050818103600083015261294381612907565b905091905056fe42455032303a207472616e7366657220616d6f756e74206578636565647320616c6c6f77616e636542455032303a2064656372656173656420616c6c6f77616e63652062656c6f77207a65726f42455032303a206275726e20616d6f756e7420657863656564732062616c616e6365a26469706673582212202076efc2026114453fd08f4797b3d899b104912ac7cfd4a227764aee774f58b764736f6c634300080a0033",
  "immutableReferences": {},
  "source": "// SPDX-License-Identifier: UNLICENSED\r\npragma solidity >=0.4.22 <0.9.0;\r\n\r\ninterface BEP20 {\r\n\r\n  function totalSupply() external view returns (uint256);\r\n\r\n  /**\r\n   * @dev Returns the amount of tokens owned by `account`.\r\n   */\r\n  function balanceOf(address account) external view returns (uint256);\r\n\r\n  /**\r\n   * @dev Moves `amount` tokens from the caller's account to `recipient`.\r\n   *\r\n   * Returns a boolean value indicating whether the operation succeeded.\r\n   *\r\n   * Emits a {Transfer} event.\r\n   */\r\n  function transfer(address recipient, uint256 amount) external returns (bool);\r\n\r\n  /**\r\n   * @dev Returns the remaining number of tokens that `spender` will be\r\n   * allowed to spend on behalf of `owner` through {transferFrom}. This is\r\n   * zero by default.\r\n   *\r\n   * This value changes when {approve} or {transferFrom} are called.\r\n   */\r\n  function allowance(address owner, address spender) external view returns (uint256);\r\n\r\n  /**\r\n   * @dev Sets `amount` as the allowance of `spender` over the caller's tokens.\r\n   *\r\n   * Returns a boolean value indicating whether the operation succeeded.\r\n   *\r\n   * IMPORTANT: Beware that changing an allowance with this method brings the risk\r\n   * that someone may use both the old and the new allowance by unfortunate\r\n   * transaction ordering. One possible solution to mitigate this race\r\n   * condition is to first reduce the spender's allowance to 0 and set the\r\n   * desired value afterwards:\r\n   * https://github.com/ethereum/EIPs/issues/20#issuecomment-263524729\r\n   *\r\n   * Emits an {Approval} event.\r\n   */\r\n  function approve(address spender, uint256 amount) external returns (bool);\r\n\r\n  /**\r\n   * @dev Moves `amount` tokens from `sender` to `recipient` using the\r\n   * allowance mechanism. `amount` is then deducted from the caller's\r\n   * allowance.\r\n   *\r\n   * Returns a boolean value indicating whether the operation succeeded.\r\n   *\r\n   * Emits a {Transfer} event.\r\n   */\r\n  function transferFrom(address sender, address recipient, uint256 amount) external returns (bool);\r\n\r\n  /**\r\n   * @dev Emitted when `value` tokens are moved from one account (`from`) to\r\n   * another (`to`).\r\n   *\r\n   * Note that `value` may be zero.\r\n   */\r\n  event Transfer(address indexed from, address indexed to, uint256 value);\r\n\r\n  event Burn(address indexed from, address indexed to, uint256 value);\r\n\r\n  /**\r\n   * @dev Emitted when the allowance of a `spender` for an `owner` is set by\r\n   * a call to {approve}. `value` is the new allowance.\r\n   */\r\n  event Approval(address indexed owner, address indexed spender, uint256 value);\r\n}\r\n\r\n\r\nlibrary SafeMath {\r\n  /**\r\n   * @dev Returns the addition of two unsigned integers, reverting on\r\n   * overflow.\r\n   *\r\n   * Counterpart to Solidity's `+` operator.\r\n   *\r\n   * Requirements:\r\n   *\r\n   * - Addition cannot overflow.\r\n   */\r\n  function add(uint256 a, uint256 b) internal pure returns (uint256) {\r\n      uint256 c = a + b;\r\n      require(c >= a, \"SafeMath: addition overflow\");\r\n\r\n      return c;\r\n  }\r\n\r\n  /**\r\n   * @dev Returns the subtraction of two unsigned integers, reverting on\r\n   * overflow (when the result is negative).\r\n   *\r\n   * Counterpart to Solidity's `-` operator.\r\n   *\r\n   * Requirements:\r\n   *\r\n   * - Subtraction cannot overflow.\r\n   */\r\n  function sub(uint256 a, uint256 b) internal pure returns (uint256) {\r\n      return sub(a, b, \"SafeMath: subtraction overflow\");\r\n  }\r\n\r\n  /**\r\n   * @dev Returns the subtraction of two unsigned integers, reverting with custom message on\r\n   * overflow (when the result is negative).\r\n   *\r\n   * Counterpart to Solidity's `-` operator.\r\n   *\r\n   * Requirements:\r\n   *\r\n   * - Subtraction cannot overflow.\r\n   */\r\n  function sub(uint256 a, uint256 b, string memory errorMessage) internal pure returns (uint256) {\r\n      require(b <= a, errorMessage);\r\n      uint256 c = a - b;\r\n\r\n      return c;\r\n  }\r\n\r\n  /**\r\n   * @dev Returns the multiplication of two unsigned integers, reverting on\r\n   * overflow.\r\n   *\r\n   * Counterpart to Solidity's `*` operator.\r\n   *\r\n   * Requirements:\r\n   *\r\n   * - Multiplication cannot overflow.\r\n   */\r\n  function mul(uint256 a, uint256 b) internal pure returns (uint256) {\r\n      // Gas optimization: this is cheaper than requiring 'a' not being zero, but the\r\n      // benefit is lost if 'b' is also tested.\r\n      // See: https://github.com/OpenZeppelin/openzeppelin-contracts/pull/522\r\n      if (a == 0) {\r\n          return 0;\r\n      }\r\n\r\n      uint256 c = a * b;\r\n      require(c / a == b, \"SafeMath: multiplication overflow\");\r\n\r\n      return c;\r\n  }\r\n\r\n  /**\r\n   * @dev Returns the integer division of two unsigned integers. Reverts on\r\n   * division by zero. The result is rounded towards zero.\r\n   *\r\n   * Counterpart to Solidity's `/` operator. Note: this function uses a\r\n   * `revert` opcode (which leaves remaining gas untouched) while Solidity\r\n   * uses an invalid opcode to revert (consuming all remaining gas).\r\n   *\r\n   * Requirements:\r\n   *\r\n   * - The divisor cannot be zero.\r\n   */\r\n  function div(uint256 a, uint256 b) internal pure returns (uint256) {\r\n      return div(a, b, \"SafeMath: division by zero\");\r\n  }\r\n\r\n  /**\r\n   * @dev Returns the integer division of two unsigned integers. Reverts with custom message on\r\n   * division by zero. The result is rounded towards zero.\r\n   *\r\n   * Counterpart to Solidity's `/` operator. Note: this function uses a\r\n   * `revert` opcode (which leaves remaining gas untouched) while Solidity\r\n   * uses an invalid opcode to revert (consuming all remaining gas).\r\n   *\r\n   * Requirements:\r\n   *\r\n   * - The divisor cannot be zero.\r\n   */\r\n  function div(uint256 a, uint256 b, string memory errorMessage) internal pure returns (uint256) {\r\n      require(b > 0, errorMessage);\r\n      uint256 c = a / b;\r\n      // assert(a == b * c + a % b); // There is no case in which this doesn't hold\r\n\r\n      return c;\r\n  }\r\n\r\n  /**\r\n   * @dev Returns the remainder of dividing two unsigned integers. (unsigned integer modulo),\r\n   * Reverts when dividing by zero.\r\n   *\r\n   * Counterpart to Solidity's `%` operator. This function uses a `revert`\r\n   * opcode (which leaves remaining gas untouched) while Solidity uses an\r\n   * invalid opcode to revert (consuming all remaining gas).\r\n   *\r\n   * Requirements:\r\n   *\r\n   * - The divisor cannot be zero.\r\n   */\r\n  function mod(uint256 a, uint256 b) internal pure returns (uint256) {\r\n      return mod(a, b, \"SafeMath: modulo by zero\");\r\n  }\r\n\r\n  /**\r\n   * @dev Returns the remainder of dividing two unsigned integers. (unsigned integer modulo),\r\n   * Reverts with custom message when dividing by zero.\r\n   *\r\n   * Counterpart to Solidity's `%` operator. This function uses a `revert`\r\n   * opcode (which leaves remaining gas untouched) while Solidity uses an\r\n   * invalid opcode to revert (consuming all remaining gas).\r\n   *\r\n   * Requirements:\r\n   *\r\n   * - The divisor cannot be zero.\r\n   */\r\n  function mod(uint256 a, uint256 b, string memory errorMessage) internal pure returns (uint256) {\r\n      require(b != 0, errorMessage);\r\n      return a % b;\r\n  }\r\n}\r\n\r\nabstract contract Context {\r\n  function _msgSender() internal view virtual returns (address) {\r\n      return msg.sender;\r\n  }\r\n\r\n  function _msgData() internal view virtual returns (bytes memory) {\r\n      this; // silence state mutability warning without generating bytecode - see https://github.com/ethereum/solidity/issues/2691\r\n      return msg.data;\r\n  }\r\n}\r\n\r\n\r\n/**\r\n* @dev Collection of functions related to the address type\r\n*/\r\nlibrary Address {\r\n  /**\r\n   * @dev Returns true if `account` is a contract.\r\n   *\r\n   * [IMPORTANT]\r\n   * ====\r\n   * It is unsafe to assume that an address for which this function returns\r\n   * false is an externally-owned account (EOA) and not a contract.\r\n   *\r\n   * Among others, `isContract` will return false for the following\r\n   * types of addresses:\r\n   *\r\n   *  - an externally-owned account\r\n   *  - a contract in construction\r\n   *  - an address where a contract will be created\r\n   *  - an address where a contract lived, but was destroyed\r\n   * ====\r\n   */\r\n  function isContract(address account) internal view returns (bool) {\r\n      // According to EIP-1052, 0x0 is the value returned for not-yet created accounts\r\n      // and 0xc5d2460186f7233c927e7db2dcc703c0e500b653ca82273b7bfad8045d85a470 is returned\r\n      // for accounts without code, i.e. `keccak256('')`\r\n      bytes32 codehash;\r\n      bytes32 accountHash = 0xc5d2460186f7233c927e7db2dcc703c0e500b653ca82273b7bfad8045d85a470;\r\n      // solhint-disable-next-line no-inline-assembly\r\n      assembly { codehash := extcodehash(account) }\r\n      return (codehash != accountHash && codehash != 0x0);\r\n  }\r\n\r\n  /**\r\n   * @dev Replacement for Solidity's `transfer`: sends `amount` wei to\r\n   * `recipient`, forwarding all available gas and reverting on errors.\r\n   *\r\n   * https://eips.ethereum.org/EIPS/eip-1884[EIP1884] increases the gas cost\r\n   * of certain opcodes, possibly making contracts go over the 2300 gas limit\r\n   * imposed by `transfer`, making them unable to receive funds via\r\n   * `transfer`. {sendValue} removes this limitation.\r\n   *\r\n   * https://diligence.consensys.net/posts/2019/09/stop-using-soliditys-transfer-block.timestamp/[Learn more].\r\n   *\r\n   * IMPORTANT: because control is transferred to `recipient`, care must be\r\n   * taken to not create reentrancy vulnerabilities. Consider using\r\n   * {ReentrancyGuard} or the\r\n   * https://solidity.readthedocs.io/en/v0.5.11/security-considerations.html#use-the-checks-effects-interactions-pattern[checks-effects-interactions pattern].\r\n   */\r\n  function sendValue(address payable recipient, uint256 amount) internal {\r\n      require(address(this).balance >= amount, \"Address: insufficient balance\");\r\n\r\n      // solhint-disable-next-line avoid-low-level-calls, avoid-call-value\r\n      (bool success, ) = recipient.call{ value: amount }(\"\");\r\n      require(success, \"Address: unable to send value, recipient may have reverted\");\r\n  }\r\n\r\n  /**\r\n   * @dev Performs a Solidity function call using a low level `call`. A\r\n   * plain`call` is an unsafe replacement for a function call: use this\r\n   * function instead.\r\n   *\r\n   * If `target` reverts with a revert reason, it is bubbled up by this\r\n   * function (like regular Solidity function calls).\r\n   *\r\n   * Returns the raw returned data. To convert to the expected return value,\r\n   * use https://solidity.readthedocs.io/en/latest/units-and-global-variables.html?highlight=abi.decode#abi-encoding-and-decoding-functions[`abi.decode`].\r\n   *\r\n   * Requirements:\r\n   *\r\n   * - `target` must be a contract.\r\n   * - calling `target` with `data` must not revert.\r\n   *\r\n   * _Available since v3.1._\r\n   */\r\n  function functionCall(address target, bytes memory data) internal returns (bytes memory) {\r\n    return functionCall(target, data, \"Address: low-level call failed\");\r\n  }\r\n\r\n  /**\r\n   * @dev Same as {xref-Address-functionCall-address-bytes-}[`functionCall`], but with\r\n   * `errorMessage` as a fallback revert reason when `target` reverts.\r\n   *\r\n   * _Available since v3.1._\r\n   */\r\n  function functionCall(address target, bytes memory data, string memory errorMessage) internal returns (bytes memory) {\r\n      return _functionCallWithValue(target, data, 0, errorMessage);\r\n  }\r\n\r\n  /**\r\n   * @dev Same as {xref-Address-functionCall-address-bytes-}[`functionCall`],\r\n   * but also transferring `value` wei to `target`.\r\n   *\r\n   * Requirements:\r\n   *\r\n   * - the calling contract must have an ETH balance of at least `value`.\r\n   * - the called Solidity function must be `payable`.\r\n   *\r\n   * _Available since v3.1._\r\n   */\r\n  function functionCallWithValue(address target, bytes memory data, uint256 value) internal returns (bytes memory) {\r\n      return functionCallWithValue(target, data, value, \"Address: low-level call with value failed\");\r\n  }\r\n\r\n  /**\r\n   * @dev Same as {xref-Address-functionCallWithValue-address-bytes-uint256-}[`functionCallWithValue`], but\r\n   * with `errorMessage` as a fallback revert reason when `target` reverts.\r\n   *\r\n   * _Available since v3.1._\r\n   */\r\n  function functionCallWithValue(address target, bytes memory data, uint256 value, string memory errorMessage) internal returns (bytes memory) {\r\n      require(address(this).balance >= value, \"Address: insufficient balance for call\");\r\n      return _functionCallWithValue(target, data, value, errorMessage);\r\n  }\r\n\r\n  function _functionCallWithValue(address target, bytes memory data, uint256 weiValue, string memory errorMessage) private returns (bytes memory) {\r\n      require(isContract(target), \"Address: call to non-contract\");\r\n\r\n      // solhint-disable-next-line avoid-low-level-calls\r\n      (bool success, bytes memory returndata) = target.call{ value: weiValue }(data);\r\n      if (success) {\r\n          return returndata;\r\n      } else {\r\n          // Look for revert reason and bubble it up if present\r\n          if (returndata.length > 0) {\r\n              // The easiest way to bubble the revert reason is using memory via assembly\r\n\r\n              // solhint-disable-next-line no-inline-assembly\r\n              assembly {\r\n                  let returndata_size := mload(returndata)\r\n                  revert(add(32, returndata), returndata_size)\r\n              }\r\n          } else {\r\n              revert(errorMessage);\r\n          }\r\n      }\r\n  }\r\n}\r\n\r\n/**\r\n* @dev Contract module which provides a basic access control mechanism, where\r\n* there is an account (an owner) that can be granted exclusive access to\r\n* specific functions.\r\n*\r\n* By default, the owner account will be the one that deploys the contract. This\r\n* can later be changed with {transferOwnership}.\r\n*\r\n* This module is used through inheritance. It will make available the modifier\r\n* `onlyOwner`, which can be applied to your functions to restrict their use to\r\n* the owner.\r\n*/\r\ncontract Ownable is Context {\r\n  address private _owner;\r\n  address private _previousOwner;\r\n  uint256 private _lockTime;\r\n\r\n  event OwnershipTransferred(address indexed previousOwner, address indexed newOwner);\r\n\r\n  \r\n   //@dev Initializes the contract setting the deployer as the initial owner.\r\n   \r\n  constructor () {\r\n      address msgSender = _msgSender();\r\n      _owner = msgSender;\r\n      emit OwnershipTransferred(address(0), msgSender);\r\n  }\r\n\r\n  /**\r\n   * @dev Returns the address of the current owner.\r\n   */\r\n  function owner() public view returns (address) {\r\n      return _owner;\r\n  }\r\n\r\n  /**\r\n   * @dev Throws if called by any account other than the owner.\r\n   */\r\n  modifier onlyOwner() {\r\n      require(_owner == _msgSender(), \"Ownable: caller is not the owner\");\r\n      _;\r\n  }\r\n\r\n   /**\r\n   * @dev Leaves the contract without owner. It will not be possible to call\r\n   * `onlyOwner` functions anymore. Can only be called by the current owner.\r\n   *\r\n   * NOTE: Renouncing ownership will leave the contract without an owner,\r\n   * thereby removing any functionality that is only available to the owner.\r\n   */\r\n  function renounceOwnership() public virtual onlyOwner {\r\n      emit OwnershipTransferred(_owner, address(0));\r\n      _owner = address(0);\r\n  }\r\n\r\n  /**\r\n   * @dev Transfers ownership of the contract to a new account (`newOwner`).\r\n   * Can only be called by the current owner.\r\n   */\r\n  function transferOwnership(address newOwner) public virtual onlyOwner {\r\n      require(newOwner != address(0), \"Ownable: new owner is the zero address\");\r\n      emit OwnershipTransferred(_owner, newOwner);\r\n      _owner = newOwner;\r\n  }\r\n\r\n  function geUnlockTime() public view returns (uint256) {\r\n      return _lockTime;\r\n  }\r\n\r\n  //Locks the contract for owner for the amount of time provided\r\n  function lock(uint256 time) public virtual onlyOwner {\r\n      _previousOwner = _owner;\r\n      _owner = address(0);\r\n      _lockTime = block.timestamp + time;\r\n      emit OwnershipTransferred(_owner, address(0));\r\n  }\r\n  \r\n  //Unlocks the contract for owner when _lockTime is exceeds\r\n  function unlock() public virtual {\r\n      require(_previousOwner == msg.sender, \"You don't have permission to unlock\");\r\n      require(block.timestamp > _lockTime , \"Contract is locked until 7 days\");\r\n      emit OwnershipTransferred(_owner, _previousOwner);\r\n      _owner = _previousOwner;\r\n  }\r\n}\r\n\r\n\r\n// pragma solidity >=0.6.2;\r\n\r\ncontract Zorking is Context, BEP20, Ownable {\r\n    using SafeMath for uint256;\r\n    using Address for address;\r\n\r\n    mapping (address => uint256) private _Owned;\r\n    mapping (address => mapping (address => uint256)) private _allowances;\r\n\r\n    mapping (address => bool) private _isExcludedFromFee;\r\n\r\n    mapping (address => bool) private _isExcluded;\r\n    address[] private _excluded;\r\n   \r\n    uint256 private constant MAX = ~uint256(0);\r\n    uint256 private _supplyTotal = 2000000000000 * 10 ** 5;\r\n    uint256 private _comunityTotal = (_supplyTotal / 2);\r\n    uint256 private _lockTotal = (_supplyTotal / 2) - 60000000 * 10 **5;\r\n    uint256 private _invTotal = 20000000 * 10 **5;\r\n    uint256 private _tFeeTotal;\r\n\r\n    address private _altheraAccount = address(0x4dDFBd49e987D25B64B0979C6Ce85910aE59Fb1B);\r\n    address private _inv1 = address(0xBe1E40C5D0788FB4Ea102D0d49F2Bbae51D1969f);\r\n    address private _inv2 = address(0x4cBD85661e56759959b67955b3507bec8BE6C267);\r\n    address private _inv3 = address(0xacBFB194C30c2ee00dE2919868E1A9b169518ecd);\r\n\r\n    string private _name = \"Zorking\";\r\n    string private _symbol = \"ZKG\";\r\n    uint8 private _decimals = 5;\r\n    \r\n    uint256 public _burnFee = 1;\r\n    uint256 private _previousburnFee = _burnFee;\r\n    \r\n    uint256 public _reflectFee = 1;\r\n    uint256 private _previousreflectiveFee = _reflectFee;\r\n\r\n    uint256 public _maxTxAmount = 999940000000 * 10 ** 5;\r\n    \r\n    constructor () {\r\n        _Owned[_msgSender()] = _comunityTotal;\r\n        _Owned[_altheraAccount] = _lockTotal;\r\n        _Owned[_inv1] = _invTotal;\r\n        _Owned[_inv2] = _invTotal;\r\n        _Owned[_inv3] = _invTotal;\r\n        \r\n        emit Transfer(address(0), _msgSender(), _comunityTotal);\r\n        emit Transfer(address(0), _altheraAccount, _lockTotal);\r\n        emit Transfer(address(0), _inv1, _invTotal);\r\n        emit Transfer(address(0), _inv2, _invTotal);\r\n        emit Transfer(address(0), _inv3, _invTotal);\r\n    }\r\n\r\n    function name() public view returns (string memory) {\r\n        return _name;\r\n    }\r\n\r\n    function symbol() public view returns (string memory) {\r\n        return _symbol;\r\n    }\r\n\r\n    function decimals() public view returns (uint8) {\r\n        return _decimals;\r\n    }\r\n\r\n    function totalSupply() public view override returns (uint256) {\r\n        return _supplyTotal;\r\n    }\r\n\r\n    function balanceOf(address account) public view override returns (uint256) {\r\n        return _Owned[account];\r\n    }\r\n\r\n    function transfer(address recipient, uint256 amount) public override returns (bool) {\r\n        _transfer(_msgSender(), recipient, amount);\r\n        return true;\r\n    }\r\n\r\n    function allowance(address owner, address spender) public view override returns (uint256) {\r\n        return _allowances[owner][spender];\r\n    }\r\n\r\n    function approve(address spender, uint256 amount) public override returns (bool) {\r\n        _approve(_msgSender(), spender, amount);\r\n        return true;\r\n    }\r\n\r\n    function transferFrom(address sender, address recipient, uint256 amount) public override returns (bool) {\r\n        _transfer(sender, recipient, amount);\r\n        _approve(sender, _msgSender(), _allowances[sender][_msgSender()].sub(amount, \"BEP20: transfer amount exceeds allowance\"));\r\n        return true;\r\n    }\r\n\r\n    function increaseAllowance(address spender, uint256 addedValue) public virtual returns (bool) {\r\n        _approve(_msgSender(), spender, _allowances[_msgSender()][spender].add(addedValue));\r\n        return true;\r\n    }\r\n\r\n    function decreaseAllowance(address spender, uint256 subtractedValue) public virtual returns (bool) {\r\n        _approve(_msgSender(), spender, _allowances[_msgSender()][spender].sub(subtractedValue, \"BEP20: decreased allowance below zero\"));\r\n        return true;\r\n    }\r\n\r\n    function defburn(uint256 amount) internal {\r\n        require(amount > 0, \"BEP20: burn some thing\");\r\n    \r\n        _Owned[_altheraAccount] = _Owned[_altheraAccount].sub(amount, \"BEP20: burn amount exceeds balance\");\r\n        _supplyTotal = _supplyTotal.sub(amount);\r\n        emit Burn(_altheraAccount, address(0), amount);\r\n      }\r\n\r\n    \r\n      function totalFees() public view returns (uint256) {\r\n        return _tFeeTotal;\r\n    }\r\n\r\n    function setBurnFeePercent(uint256 burnFee) external onlyOwner() {\r\n        _burnFee = burnFee;\r\n    }\r\n\r\n    function setReflectFeePercent(uint256 reflectFee) external onlyOwner() {\r\n        _reflectFee = reflectFee;\r\n    }\r\n    \r\n     //to recieve ETH from uniswapV2Router when swaping\r\n    receive() external payable {}\r\n\r\n    function DoreflectFee(uint256 reflectFee) private {\r\n        _Owned[_altheraAccount] = _comunityTotal.sub(reflectFee);\r\n        _tFeeTotal = _tFeeTotal.add(reflectFee);\r\n    }\r\n\r\n    function _getValues(uint256 tAmount) private view returns (uint256, uint256) {\r\n        (uint256 ToburnFee, uint256 ToreflectFee) = _getTValues(tAmount);\r\n        return (ToburnFee, ToreflectFee);\r\n    }\r\n\r\n    function _getTValues(uint256 tAmount) private view returns (uint256, uint256) {\r\n        uint256 burnFee = calculateBurnFee(tAmount);\r\n        uint256 reflectFee = calculateReflectFee(tAmount);\r\n        return (burnFee, reflectFee);\r\n    }\r\n\r\n    \r\n    function calculateBurnFee(uint256 _amount) private view returns (uint256) {\r\n        return _amount.mul(_burnFee).div(\r\n            10**2\r\n        );\r\n    }\r\n\r\n    function calculateReflectFee(uint256 _amount) private view returns (uint256) {\r\n        return _amount.mul(_reflectFee).div(\r\n            10**2\r\n        );\r\n    }\r\n\r\n    function _approve(address owner, address spender, uint256 amount) private {\r\n        require(owner != address(0), \"BEP20: approve from the zero address\");\r\n        require(spender != address(0), \"BEP20: approve to the zero address\");\r\n\r\n        _allowances[owner][spender] = amount;\r\n        emit Approval(owner, spender, amount);\r\n    }\r\n\r\n    function _transfer(\r\n        address from,\r\n        address to,\r\n        uint256 amount\r\n    ) private {\r\n        require(from != address(0), \"BEP20: transfer from the zero address\");\r\n        require(to != address(0), \"BEP20: transfer to the zero address\");\r\n        require(amount > 0, \"Transfer amount must be greater than zero\");\r\n        if(from != owner() && to != owner())\r\n            require(amount <= _maxTxAmount, \"Transfer amount exceeds the maxTxAmount.\");\r\n\r\n        // is the token balance of this contract address over the min number of\r\n        // tokens that we need to initiate a swap + liquidity lock?\r\n        // also, don't get caught in a circular liquidity event.\r\n        // also, don't swap & liquify if sender is uniswap pair.\r\n        uint256 contractTokenBalance = balanceOf(address(this));\r\n        \r\n        if(contractTokenBalance >= _maxTxAmount)\r\n        {\r\n            contractTokenBalance = _maxTxAmount;\r\n        }\r\n        \r\n        //transfer amount, it will take tax, burn, liquidity fee\r\n        _tokenTransfer(from,to,amount);\r\n    }\r\n\r\n    //this method is responsible for taking all fee, if takeFee is true\r\n    function _tokenTransfer(address sender, address recipient, uint256 amount) private {\r\n        \r\n        _transferStandard(sender, recipient, amount);\r\n    }\r\n\r\n    function _transferStandard(address sender, address recipient, uint256 Amount) private {\r\n        (uint256 toBurn, uint256 toReflect) = _getValues(Amount);\r\n        _Owned[sender] = _Owned[sender].sub(Amount);\r\n        _Owned[recipient] = _Owned[recipient].add(Amount);\r\n        DoreflectFee(toReflect);\r\n        defburn(toBurn);\r\n        emit Transfer(sender, recipient, Amount);\r\n    }\r\n\r\n}",
  "sourcePath": "D:\\Althera\\SmartContracts Area\\DefZorking\\Zorking\\contracts\\Zorking.sol",
  "compiler": {
    "name": "solc",
    "version": "0.8.10+commit.fc410830.Emscripten.clang"
  },
  "schemaVersion": "3.4.3",
  "updatedAt": "2021-12-06T22:58:12.320Z",
  "networkType": "ethereum",
  "devdoc": {
    "kind": "dev",
    "methods": {
      "allowance(address,address)": {
        "details": "Returns the remaining number of tokens that `spender` will be allowed to spend on behalf of `owner` through {transferFrom}. This is zero by default. This value changes when {approve} or {transferFrom} are called."
      },
      "approve(address,uint256)": {
        "details": "Sets `amount` as the allowance of `spender` over the caller's tokens. Returns a boolean value indicating whether the operation succeeded. IMPORTANT: Beware that changing an allowance with this method brings the risk that someone may use both the old and the new allowance by unfortunate transaction ordering. One possible solution to mitigate this race condition is to first reduce the spender's allowance to 0 and set the desired value afterwards: https://github.com/ethereum/EIPs/issues/20#issuecomment-263524729 Emits an {Approval} event."
      },
      "balanceOf(address)": {
        "details": "Returns the amount of tokens owned by `account`."
      },
      "owner()": {
        "details": "Returns the address of the current owner."
      },
      "renounceOwnership()": {
        "details": "Leaves the contract without owner. It will not be possible to call `onlyOwner` functions anymore. Can only be called by the current owner. NOTE: Renouncing ownership will leave the contract without an owner, thereby removing any functionality that is only available to the owner."
      },
      "transfer(address,uint256)": {
        "details": "Moves `amount` tokens from the caller's account to `recipient`. Returns a boolean value indicating whether the operation succeeded. Emits a {Transfer} event."
      },
      "transferFrom(address,address,uint256)": {
        "details": "Moves `amount` tokens from `sender` to `recipient` using the allowance mechanism. `amount` is then deducted from the caller's allowance. Returns a boolean value indicating whether the operation succeeded. Emits a {Transfer} event."
      },
      "transferOwnership(address)": {
        "details": "Transfers ownership of the contract to a new account (`newOwner`). Can only be called by the current owner."
      }
    },
    "version": 1
  },
  "userdoc": {
    "kind": "user",
    "methods": {},
    "version": 1
  }
}